:020000040000fa
:080000000002040000000000f2
:020000040000fa
:10000800cc020000cc020000cc020000cc020000b0
:10001800cc020000cc020000cc020000cc020000a0
:10002800cc020000cc020000cc020000cc02000090
:10003800cc020000cc020000cc020000ca0b000079
:10004800cc020000cc020000cc020000cc02000070
:10005800cc02000012070000cc020000cc02000015
:10006800cc020000cc020000cc0200009409000081
:10007800cc020000cc020000cc020000cc02000040
:10008800cc020000cc020000cc020000cc02000030
:10009800cc020000cc020000ee0e0000cc020000f2
:1000a800cc020000cc020000cc020000cc02000010
:1000b800cc020000cc020000cc020000cc02000000
:1000c800cc020000cc020000cc020000cc020000f0
:1000d800cc020000cc020000cc020000cc020000e0
:1000e800cc020000cc020000cc020000cc020000d0
:1000f800cc020000cc020000cc020000cc020000c0
:10010800cc020000cc020000cc020000cc020000af
:10011800cc020000cc020000cc020000cc0200009f
:10012800cc020000cc020000cc020000cc0200008f
:10013800cc020000cc020000cc020000cc0200007f
:10014800cc020000cc020000cc020000cc0200006f
:10015800cc020000cc020000cc020000cc0200005f
:10016800cc020000cc020000cc020000cc0200004f
:10017800cc020000cc020000cc020000cc0200003f
:10018800cc020000cc020000cc020000cc0200002f
:10019800cc020000cc020000cc020000cc0200001f
:1001a800cc020000cc020000cc020000cc0200000f
:1001b800cc020000cc020000cc020000cc020000ff
:1001c800cc020000cc020000cc020000cc020000ef
:1001d800cc020000cc020000cc020000cc020000df
:1001e800cc020000cc020000cc020000cc020000cf
:1001f800cc020000cc020000cc020000cc020000bf
:10020800cc020000cc020000cc020000cc020000ae
:10021800cc020000cc020000cc020000cc0200009e
:10022800cc020000cc020000cc020000cc0200008e
:10023800cc020000cc020000cc020000cc0200007e
:10024800cc020000cc020000cc020000cc0200006e
:10025800cc020000cc020000cc020000cc0200005e
:10026800cc020000cc020000cc020000cc0200004e
:0c027800cc020000cc020000cc02000010
:020000040000fa
:100400000f3021000eff28000e01880000000000c0
:1004100000012000200288000c000700c04d2100d0
:10042000010020000f000700000020000000e00095
:100430000200320000000200000000000004020080
:10044000000000000040da000000fe000002200072
:100450000000e0000200320000202000900188002f
:1004600000000600a1028800800078000000eb0078
:100470001a003700e280400054a0b4009101ba0095
:10048000e280400054a0b4009102ba00e280400033
:1004900054a0b4000002eb00472bde00f507b200c9
:1004a000a6018800602ce10008003a000049eb003a
:1004b0000201e800020039003420ec0002f0a00044
:1004c0008301e900f9ff3e00040037006128e100e4
:1004d000010032000082eb00040007001101ba00a5
:1004e0000200e000e3ff3a000000060004d0a30091
:1004f000e20f49001c003900810278003549ba003a
:100500000201e800020039003420ec0002f0a000f3
:100510008301e9000f0032002549ba000201e8001a
:10052000020039003420ec0002f0a0008301e90051
:10053000080032000400e0000600320015c9ba00cd
:100540000201e800020039003420ec0002f0a000b3
:100550008301e9008180e80054a0b4000300e000ba
:10056000e2ff3a00000006009102ba000559780047
:100570008301e900f7ff3200c82ade000559780040
:100580008301e900f3ff32000400e000f1ff3200d4
:1005900011d9ba00eeff37000040da000000fe007b
:1005a0000000fa00001020003202b6000000e9004e
:1005b0004f00de000080fa00000006000000fa0094
:1005c00031e2a90023c8a90023e8a90003c8a900b3
:1005d00003e8a9000080fa00000006000000fa000d
:1005e00003c8a90003e8a900e7026000c82add00eb
:1005f000f48f2f007642800006026200050272002e
:1006000074428800800278000507b200c82add0025
:10061000f4ff2800764280000602620005027200a4
:1006200074428800e8026000c32ade00e1826200b2
:10063000ce2add00f4ff2b00164180000602620086
:1006400005027200144188000008b2004700de0075
:10065000610060004f00dd00f4ff270015418000bd
:100660000502620000027200144188000080fa0056
:10067000000006000000fa00901180006140600058
:100680000080fa00000006000000fa00c211880095
:1006900080118800911188000080fa000000060097
:1006a0000000fa008411800066026200e60f52002a
:1006b0000c003a00030037003322ab00feff3a0083
:1006c000a5118800b0027800e08f5200faff3a00ce
:1006d000070037003322ab00feff3a008502fb0023
:1006e000a5118800b0427800e0cf5200f9ff3a002f
:1006f0000080fa00000006000000fa00841180006b
:1007000066026200e60f520002003a00b01180005b
:1007100002003700b0118000f00fb2000080fa0034
:10072000000006000000fa008411800066026200ea
:10073000e60f520001003200f00fb200a011880055
:100740000080fa000000060000f0a7000000ea00a8
:1007500000f0a7000080ea00000006006022b80058
:10076000060220000000d0008180d2000482d20066
:100770008582d2000000a0000202520083825a004b
:10078000030031000202420083824a000000a100ff
:100790000603e900f3ff3a00000006000000fa003b
:1007a0000002780002003700015a78000201e900d7
:1007b000e00f5100fcff3a000080fa000000060044
:020000040000fa
:1007c00052540000444d0000002b00002452000051
:1007d000544400004d2300001b860000002b000045
:1007e000244f00004b2300004c080000002d0000a7
:1007f0002445000001230000d36a0000000000002f
:020000040000fa
:100800000000fa0044042000343a8800243a8000b2
:100810000460a1000470a100243a8800253a8000f9
:1008200004fe2f0004826200243a88003600200073
:1008300084072000a509200037742000844b78002d
:10084000854b7800864b7800160020006404200059
:100850007505200027742000844b7800854b7800b4
:10086000864b780000000000153a80000400270045
:100870008482620004002300848f5200faff3a0051
:1008800000000000153a800004022000048262008b
:10089000e00f5200fbff3200e70807006802070084
:1008a000df0907000002eb00648388006c50a80099
:1008b000157380000408200004826200e00f5200db
:1008c0001d003a00157380000404200004826200b9
:1008d000e00f520018003a008302070015738000f1
:1008e0000408200004826200e00f520012003a0067
:1008f000157380000404200004826200e00f52009f
:100900000d003a006d90a8000000000015738000f3
:100910000408200004826200e00f520005003a0043
:10092000157380000404200004826200e00f52006e
:10093000f6ff32006c0207006cf0a9006c10a800f2
:100940000002eb004489880021a8a9005601070095
:1009500000427800e04f5200040032006c30a900e1
:10096000040078000080fa00000006006022b80051
:1009700074838800858388006022b800148488000e
:10098000258488006022b800b4848800c58488006b
:1009900001a8a90021a8a800648380006202620067
:1009a000e00f520046003a0038003700157380000f
:1009b0000404200004826200e00f520033003a0079
:1009c00049020700157380000404200004826200bd
:1009d000e00f520007003a00658380000402200007
:1009e00004826200e00f520028003a006cb0a800b8
:1009f0002600370065838000040220000482620024
:100a0000e00f5200210032006cb0a9006583800025
:100a1000040820000482620004f0a7000402ea0037
:100a20000402e9004f22de00044278000482fb0049
:100a3000610262004722dd0066838000f5f72f0027
:100a400085026300048272006483880065838000ed
:100a5000042020000482620004f0a7000402ea00df
:100a60000402e9004f22de00044278000482fb0009
:100a7000610262004922dd0066838000f5df2f00fd
:100a8000850263000482720064838800157380000d
:100a90000408200004826200e00f5200c3ff3a0005
:100aa000000000001573800004082000048262002a
:100ab000e00f5200fbff3200fb0007006c30a80083
:100ac0006cd0a800147080004822de0061426200f1
:100ad0008482fb00947280000442780061426200cc
:100ae0000482fb00040242000403780014718000b9
:100af0004622de00614262000482fb0004024300e1
:100b00000402420004824200a4868800a486800079
:100b1000b4868800ad06070007003700000000001b
:100b2000050037000000000003003700000000004f
:100b3000010037000000000055898000f4182000f3
:100b4000848f5200f5ff36006483800062026200e9
:100b5000e00f520001003a00430037001573800097
:100b60000408200004826200e00f520015003a00e1
:100b7000dd01070015738000040820000482620074
:100b8000e00f520006003a006483800070026200a9
:100b9000e00f52000b003a006c90a80009003700eb
:100ba0006483800070026200e00f52000500320092
:100bb0006c90a9006c30a9000002eb004489880009
:100bc00029003700157380000404200004826200ad
:100bd000e00f5200d3ff3a00c301070015738000f5
:100be0000404200004826200e00f520007003a0073
:100bf000658380000402200004826200e00f52003e
:100c0000caff3a006cb0a800cbff370065838000b4
:100c10000402200004826200e00f5200c5ff32008f
:100c20006cb0a9006583800004202000048262006b
:100c300004f0a7000402ea000402e9004f22de00eb
:100c4000044278000482fb00610262004922dd0058
:100c500066838000f5df2f00850263000482720046
:100c600064838800b4ff370033ff37000000fa00c8
:100c700044e0a80044c0a8004480a900000d210061
:100c8000c70907009586800004e82300048242001b
:100c90007487880074878000e00f520002003d00d6
:100ca0000002eb0074878800658380000420200028
:100cb00004826200e00f520003003200748780005b
:100cc0000402ea00748788007587800024002000f1
:100cd000110009008402d8000002780054858800c1
:100ce000658380000400210004826200e00f52004e
:100cf00003003200e4a22300748588001e00370040
:100d00006483800064026200e00f5200030032003e
:100d1000548580007485880017003700248a80007d
:100d2000f30f52001400360055858000445c2f00fc
:100d3000848f52000600350055858000c4a3200032
:100d4000848f520002003c000002eb0054858800b2
:100d5000f4868000348588005485800024858800ce
:100d600060092100310907004485800074858800ee
:100d70000002eb00248a880054858000040078007b
:100d800071fe070000027800040078006c0807007c
:100d90000002780064858800f4858000f483880070
:100da00064858000e4838800e00621001f090700b5
:100db00004848000148688001586800014868000d4
:100dc0008500780004007800a20607000002780081
:100dd0009489880094898000453827000482520055
:100de00004007800aa0607000002780064848800e6
:100df000648480000402ea00748488000486800011
:100e000094848800748580008484880020082100f0
:100e100006090700a4848000248688000080fa0068
:100e2000000006003600f800809fbe00829fbe00d2
:100e3000849fbe00869fbe000000fa0001a8a900a2
:100e4000248a80000402e800248a880054898000f3
:100e50000402e80054898800648380006202620012
:100e6000e00f52000800320021090700ea010700e4
:100e70000b0907007dff0700c50807003c090700b4
:100e80002d090700d0070700254ea9000080fa00b1
:100e90004f03be004f02be004f01be004f00be0018
:100ea0003600f900004006000000fa000002eb00e6
:100eb0005487880044e0a800948828008508200012
:100ec00094828800a582880004e22400848288003d
:100ed00084eb23008486880044062100f5ff270068
:100ee000050a780044062100f5ff27002502980036
:100ef00064052100c5da2000050a780004c0280036
:100f00002454880004c028006454880004c02800c9
:100f1000a454880014012800e4548800f408200038
:100f200014548800f400200014558800c4da20000e
:100f300044618800c4da200044628800c4da2000da
:100f40004463880094b52100246088004420200078
:100f500004618800442020000462880044202000ae
:100f60000463880004002c001461880004002c0035
:100f70001462880004002c00146388000002eb0057
:100f8000546188000002eb00546288000002eb000c
:100f900054638800640420006461880064042000b5
:100fa00064628800640420006463880034002000c8
:100fb000246188003400200024628800340020006e
:100fc000246388000002eb001460880044022000c3
:100fd000346188004402200034628800440220000a
:100fe00034638800744380000480a1000490a10051
:100ff00004a0a000744388007443800004c0a100d2
:1010000004d0a10004e0a000744388008443800061
:101010000400a1000410a1000420a0008443880063
:101020000bc8a9002bc8a900040028000460880090
:101030000002eb0034608800041980000480a000e6
:101040000490a00004198800041980000450a00036
:101050000460a0000470a100041988002083a90086
:101060002063a8002043a8000002eb0014198800a8
:10107000141980000480a1000490a00014198800b5
:101080000002eb002419880064c0b300044078001b
:1010900024e3b7000002eb004419880045198000e2
:1010a00004fe2f0004826200d400b30044198800bb
:1010b0002603a8000002eb008419880021e3a800a1
:1010c000890007003418800084027800241880000a
:1010d0008500780004007800940807000028a90023
:1010e0002028a900044280000440a1000450a1006f
:1010f0000460a0000442880014c02100040a880093
:10110000040a800004a0a00004b0a10004c0a10053
:10111000040a8800040a80000400a0000410a10052
:101120000420a100040a88000002eb00140a8800d1
:101130002028a90000a8a90020a8a9001442800026
:101140000440a1000450a1000460a00014428800e3
:10115000440a800004a0a00004b0a10004c0a100c3
:10116000440a8800440a80000400a0000410a10082
:101170000420a100440a88000002eb00540a880001
:1011800020a8a90004a8a90024a8a90094428000ce
:101190000440a1000450a1000460a0009442880013
:1011a000840a800004a0a00004b0a10004c0a10033
:1011b000840a8800840a80000400a0000410a100b2
:1011c0000420a100840a88000002eb00940a880031
:1011d00024a8a90011e1a9001021a90010c1a900ab
:1011e000840880000440a0000450a0008408880007
:1011f0000002eb00340888000082eb0064088800dd
:101200001442800004c0a10004d0a00004e0a100aa
:101210001442880000e8a90020e8a80011e1a80015
:10122000090ea80028cea800580ea8002268a80021
:101230000042eb00044078000080fa000000060045
:101240000000fa00f4282000948388001402200093
:10125000a4838800f4ff2700b4838800f4ff2700ec
:10126000c4838800c48380000402ea00d483880019
:10127000e0062100eb070700f428200034848800f2
:101280001402200044848800f4ff2700548488005e
:10129000f4ff270064848800648480000402ea006c
:1012a0007484880020082100de070700646620009f
:1012b000d484880014022000e48488008414200070
:1012c000f4848800f4ff23000485880004858000ee
:1012d0000402ea001485880060092100d107070094
:1012e0000080fa00000006000400fa006022b80046
:1012f000048fbe0004003700140020000500200009
:101300001e0f42005e974a00f46928001500200075
:101310001e03be00840f5300858f5b00f6ff340070
:101320000080fa00000006003600f800809fbe0032
:10133000829fbe00849fbe00869fbe000000fa0010
:101340000268a90065838000040021000482620015
:10135000e00f5200310032000002eb00a48688004a
:10136000147080004822de00614262008482fb002b
:101370009472800004427800614262000482fb00a3
:101380000402420004037800147180004622de004b
:10139000614262000482fb00040243000402420036
:1013a00004824200a4868800a4868000858580008f
:1013b00004034200641d210004024300050a780072
:1013c000f6020700a4868000b4868800a48d800001
:1013d0000402e800a48d8800a48d8000eb0f520069
:1013e000850036006d90a9000002eb00a48d8800f6
:1013f000a486800084024200641d21000482420011
:101400009402780054552500048242000487880025
:101410000487800084858800770037000002eb0095
:10142000548788000002eb00a486880014708000b6
:101430004822de00614262008482fb0094728000d8
:1014400004427800614262000482fb000402420010
:1014500004037800147180004622de0061426200bd
:101460000482fb00040243000402420004824200a2
:10147000a48688000042eb0004407800d8f0b70052
:10148000a40a8000448788007d0307003408800098
:1014900005002000e4898800f58988000002eb003f
:1014a00034088800e48680000402e800e4868800ae
:1014b000e6898000f7898000f4ff270005002000fe
:1014c000840f5300858f5b0016003600f4ff270061
:1014d00005002000e4898800f58988000002eb00ff
:1014e000f486880025718000044020000482620098
:1014f00004f0a7000402ea000402e9004f22de0023
:10150000044278000482fb00610262004a22dd008e
:1015100026718000f5bf2f008502630004827200ef
:1015200024718800d48980006123b900e489800097
:10153000f5898000840f5300858f5b0006003e0014
:10154000840d210014427800e04f520002003a005e
:101550009f0707001d003700d48980006123b90070
:10156000e4898000f5898000840f5300858f5b003b
:1015700016003600f4ff2700f4868800d489800026
:10158000cfa2de00e4898800f589880025718000fb
:10159000044020000482620004f0a7000402ea0074
:1015a0000402e9004f22de00044278000482fb00be
:1015b000610262004a22dd0026718000f5bf2f0023
:1015c00085026300048272002471880064838000b5
:1015d0004b22de00e1426200648380004a22de008a
:1015e0006142620084cf520003003200f486800022
:1015f0000402ea00f48688000268a9000080fa006c
:101600004f03be004f02be004f01be004f00be00a0
:101610003600f900004006000000fa0065838000f3
:101620000400210004826200e00f52000e0032002c
:101630008582800034898000848f52000600360045
:10164000348980000402e800348988000002eb003d
:10165000848588004d003700848580000402e800fe
:101660008485880049003700f48680008402780071
:1016700005f0a7008502ea0084142000848f520040
:101680000d003c000002eb0014878800a486800057
:1016900084024200641d210004824200940278000a
:1016a0005455250004824200048788000487800086
:1016b000848588000e003700068a8000178a800023
:1016c000e4898000f58980000401be000600be00a8
:1016d00022fc07000002be002487880035878800ae
:1016e00024878000358780000402780014878800f2
:1016f000648380004b22de00e1426200648380004c
:101700004a22de006142620084cf520010003a009b
:10171000848580008402780014878000048242005f
:10172000848588008585800004878000848252003b
:10173000a4aa2200848f5200140034000587800080
:10174000a4aa220004824200848588000f0037008a
:10175000848580008402780014878000048252000f
:1017600084858800058780008485800084825200fb
:10177000a4aa2200848f5200040034000587800050
:1017800064552d0004824200848588000080fa00a0
:1017900000000600801f7800849fbe000000fa0051
:1017a00000e8a900850d21009542780014c0b3001f
:1017b000e1cf520001003e000042eb008542e8000c
:1017c00005407800d8f0b700e04f52000700320023
:1017d000f4ff2700d48688000002eb00f48688001e
:1017e00024c0b30004407800d8f0b7000080fa00ad
:1017f0004f02be004f007800004006000000fa00d3
:101800006efb070090f22f0074fb070004402c00d1
:10181000948b8800d4752900a48b8800a58b800048
:10182000948b8000a20420008500780004007800da
:1018300095fb07007011a9007011a900348d80007c
:10184000548d8800348d8000348b8800348d800066
:10185000448b88000002eb00040078000080fa004e
:10186000000006000200fa000002eb00040f7800fe
:1018700052fb07001e027800040078000080fa0086
:10188000000006002000fa00848b800061026200e4
:10189000e00f520002003a000082eb004c013700da
:1018a000448b800084027800348b800004825200d4
:1018b0008402e800348b80000081eb008500780012
:1018c000040078007c01070000027800548b880037
:1018d000548b80004822de00648b8800558b80008a
:1018e000f40f200004826200748b8800448b800017
:1018f0000482e800144278000482fb005407980038
:10190000448b80000402e800144278000482fb004b
:1019100064079800348b80000482e800348b8800d0
:10192000648b8000de029000848f52001c013a001c
:10193000748b8000ee029000848f520018013a00f0
:10194000348d80000402e800144278000482fb0019
:101950006123b90044fb2f00f5ff2f00060242006f
:1019600087824a007602200007002000860f52007e
:10197000878f5a0001013e0004060100cb003700aa
:1019800093003700fd003700fc003700fb003700f4
:10199000fa003700f9003700f8003700f700370089
:1019a000f6003700f5003700f4003700f300370089
:1019b000f2003700f1003700f0003700ef00370089
:1019c000ee003700ed003700ec003700eb00370089
:1019d000ea003700e9003700e8003700e700370089
:1019e000e6003700e5003700e4003700e300370089
:1019f000e2003700e1003700e0003700df00370089
:101a000006003700dd003700dc003700db00370060
:101a1000da003700d90037009b003700348b800094
:101a200074079800348b800064024200348b880075
:101a30007e0290001402be00040278001407980091
:101a4000348b80009402780035079800348b800036
:101a50000482e800348b88000082eb00548b8800fd
:101a6000b4c2b3000457980044c2b300145798009e
:101a70000042eb0024579800558b8000700247000d
:101a80000501780021002000040078000a01070009
:101a900000027800548b8800548b80000401780089
:101aa000be0090001e0090000301070000027800b5
:101ab000548b88007002470004007800f8fa070091
:101ac00000000000b6fa070000427800e04f520024
:101ad000fcff3a000d0037001e029000144278000f
:101ae0000482fb009e0290008502e8001507980022
:101af000040078000bfb070000000000a8fa0700b4
:101b000000427800e04f5200fcff3a003e02900095
:101b100004f0a7000402ea000402ea004f22de00fb
:101b200004427800be0290008502e9003507980063
:101b3000e04f5200e8ff3a0034c2b3000457980067
:101b4000558b8000700247000501780011002000cd
:101b500004007800d800070000027800548b880049
:101b6000548b80000442780014579800548b8000f6
:101b70004822de0004427800245798000002eb005f
:101b8000440798000e0037004e0290007002420099
:101b90006e427a000482fb0004007800e1fa07003c
:101ba000000000007efa070000427800e04f52007b
:101bb000fcff3a004e0290000402e800440798003f
:101bc0004e029000e20f5200efff36007400370023
:101bd000348b800074079800348b800064024200cc
:101be000348b88007e0290001402be00040278004c
:101bf00024079800348b8000940278003507980001
:101c0000348b80000482e800348b8800348b8000a1
:101c1000040f7800080037001e0278001442780094
:101c2000ae029000844a78002e0290000402e80080
:101c3000240798001e0fe8003e02900004f0a70061
:101c40000402ea000402ea004f22de0004427800a7
:101c5000be0290008502e90035079800e04f52006f
:101c6000edff3a00f43e2800040078008cfa0700eb
:101c7000000000004afa070000427800e04f5200de
:101c8000fcff3a0046003700543e2800040078006c
:101c900083fa07000000000041fa070000427800c4
:101ca000e04f5200fcff3a003d0037000082eb009d
:101cb000548b8800b4c2b3000457980044c2b300e8
:101cc0001457980004c2b300245798000042eb0058
:101cd000345798000042eb004457980004c1b30009
:101ce0005457980034c2b30064579800558b800055
:101cf00070024700050178007100200004007800a0
:101d00006d00070000027800548b8800548b80001f
:101d10000442780074579800548b80004822de00fb
:101d200004427800045f98000002eb00440798002a
:101d30000e0037004e029000700242006e427a00a0
:101d40000482fb000400780076fa0700000000001f
:101d500013fa070000427800e04f5200fcff3a00ff
:101d60004e0290000402e800440798004e029000e2
:101d7000e80f5200efff360009003700743f2800db
:101d80000400780046fa07000000000004fa07008b
:101d900000427800e04f5200fcff3a0000000000d3
:101da000020220008000eb00601421007bfa070093
:101db0007011a900348d8000548d8800348d80000e
:101dc000348b8800348d8000448b88000002eb0047
:101dd000040078000080fa00000006003600f800d9
:101de000809fbe00829fbe00849fbe00869fbe0073
:101df000881f78000000fa0003c8a9000700370018
:101e0000588d80003cfa07000002780004427800f8
:101e1000044c78000802e800548d880015fa070089
:101e200000427800e04f5200f5ff3a00548d8000e8
:101e300063025200448b8800448d80008402e900d4
:101e4000548d8000848f520005003100348d800055
:101e5000548d8800448d80000402e900448b880082
:101e6000348b80009442780044c2b30084cf520087
:101e700007003a00448b80009442780034c2b300db
:101e800084cf520004003a007011a800020037000d
:101e9000348d8000548d88000080fa004f04780053
:101ea0004f03be004f02be004f01be004f00be00f8
:101eb0003600f900004006001000fa0050079800b4
:101ec000610798007207980014002a0034079800f0
:101ed00084002000440798000002eb0014079800db
:101ee00026003700be8b88005e0290001442780006
:101ef0000482fb00240798005e0290000402e800c0
:101f0000540798000002eb00040f7800140037001b
:101f1000fe0290002e02900004826a0061026200bc
:101f200004427800e04f5200060032007e0290002a
:101f30008402d1003e02900004826a007407980077
:101f4000030037007e0290000402d100740798005d
:101f50002e0290000402d100240798001e0fe80012
:101f60004e0290009e027800848f5200e8ff3900f4
:101f70001e0290000402e800140798009e029000e0
:101f80006e029000848f5200d6ff39007e029000ce
:101f9000040078000080fa00000006000000fa004b
:101fa000a08d8000e90f5000b3003a00a0868000a9
:101fb000e30f500044003200e30f500005003e00e4
:101fc000e10f500025003200e20f500059003200ae
:101fd000a9003700e50f500005003200e50f500062
:101fe0008a003900e60f50006d003200a200370071
:101ff000b0868000e40f500002003a006d50a90046
:102000009d003700b0868000e10f500002003a00ca
:102010006d50a8009800370021718000004020001a
:102020000080600000f0a7000000ea000000e90066
:102030004f00de00004078000080fb00610060007f
:102040004a00dd0022718000f1bf2f008100610095
:10205000010070002071880087003700b086800082
:10206000e50f500002003a006d50a90082003700d1
:10207000b0868000e30f500002003a006d50a800c7
:102080007d0037002171800000402000008060004a
:1020900000f0a7000000ea000000e9004f00de00a9
:1020a000004078000080fb00610060004a00dd0015
:1020b00022718000f1bf2f008100610001007000db
:1020c000207188006c003700b0868000e10f50005e
:1020d00002003a006d50a90067003700b08680000a
:1020e000e20f500002003a006d50a8006200370075
:1020f00021718000004020000080600000f0a700f7
:102100000000ea000000e9004f00de000040780017
:102110000080fb00610060004a00dd002271800049
:10212000f1bf2f0081006100010070002071880064
:1021300051003700b0868000e30f500002003a00e3
:102140006d50a9004c003700b0868000e60f5000ab
:1021500002003a006d50a80047003700217180004e
:10216000004020000080600000f0a7000000ea00ae
:102170000000e9004f00de00004078000080fb0016
:10218000610060004a00dd0022718000f1bf2f0075
:102190008100610001007000207188003600370066
:1021a000b0868000e20f500002003a006d50a90096
:1021b00031003700b0868000e40f500002003a0082
:1021c0006d50a8002c0037002171800000402000d5
:1021d0000080600000f0a7000000ea000000e900b5
:1021e0004f00de00004078000080fb0061006000ce
:1021f0004a00dd0022718000f1bf2f0081006100e4
:1022000001007000207188001b003700b08680003c
:10221000e60f500002003a006d50a900160037008a
:10222000b0868000e50f500002003a006d50a80013
:102230001100370021718000004020000080600004
:1022400000f0a7000000ea000000e9004f00de00f7
:10225000004078000080fb00610060004a00dd0063
:1022600022718000f1bf2f00810061000100700029
:1022700020718800000000000080fa0000000600c5
:102280000000fa00a0868000e30f500044003200f6
:10229000e30f500005003e00e10f50002500320022
:1022a000e20f500059003200a9003700e50f50003e
:1022b00005003200e50f50008a003900e60f50009b
:1022c0006d003200a2003700b0868000e40f50009d
:1022d00002003a006d70a9009d003700b0868000b2
:1022e000e10f500002003a006d70a800980037001e
:1022f00021718000004020000080600000f0a700f5
:102300000000ea000000e9004f00de000040780015
:102310000080fb00610060004a00dd002271800047
:10232000f1bf2f0081006100010070002071880062
:1023300087003700b0868000e50f500002003a00a9
:102340006d70a90082003700b0868000e30f500056
:1023500002003a006d70a8007d00370021718000f6
:10236000004020000080600000f0a7000000ea00ac
:102370000000e9004f00de00004078000080fb0014
:10238000610060004a00dd0022718000f1bf2f0073
:102390008100610001007000207188006c0037002e
:1023a000b0868000e10f500002003a006d70a90075
:1023b00067003700b0868000e20f500002003a004c
:1023c0006d70a8006200370021718000004020007d
:1023d0000080600000f0a7000000ea000000e900b3
:1023e0004f00de00004078000080fb0061006000cc
:1023f0004a00dd0022718000f1bf2f0081006100e2
:10240000010070002071880051003700b086800004
:10241000e30f500002003a006d70a9004c00370035
:10242000b0868000e60f500002003a006d70a800f0
:1024300047003700217180000040200000806000cc
:1024400000f0a7000000ea000000e9004f00de00f5
:10245000004078000080fb00610060004a00dd0061
:1024600022718000f1bf2f00810061000100700027
:102470002071880036003700b0868000e20f5000df
:1024800002003a006d70a90031003700b08680006c
:10249000e40f500002003a006d70a8002c003700d5
:1024a00021718000004020000080600000f0a70043
:1024b0000000ea000000e9004f00de000040780064
:1024c0000080fb00610060004a00dd002271800096
:1024d000f1bf2f00810061000100700020718800b1
:1024e0001b003700b0868000e60f500002003a0063
:1024f0006d70a90016003700b0868000e50f50000f
:1025000002003a006d70a8001100370021718000b0
:10251000004020000080600000f0a7000000ea00fa
:102520000000e9004f00de00004078000080fb0062
:10253000610060004a00dd0022718000f1bf2f00c1
:10254000810061000100700020718800000000001f
:10255000a0868000b0868800608380004b00de008b
:10256000e1406000608380004a00de00614060005e
:1025700080cf500009003a00a08680008000400013
:10258000601d2100008040009000780000002400c1
:10259000008040000087880008003700a086800087
:1025a00080004000601d2100008040009000780005
:1025b000b0aa2600008040000087880000878000c5
:1025c000808588000080fa00000006000000fa0004
:1025d000d430ef00107080004800de0061406000e1
:1025e0008080fb00907280000040780061406000b5
:1025f0000080fb00000040000001780010718000a6
:102600004600de00614060000080fb0000004100e9
:102610000000400000804000a0868800a086800066
:1026200080004000601d2100008040009000780084
:1026300050552500008040000087880000878000fa
:10264000808588000080fa0000000600c4878000b2
:10265000858780001301c000958780001381c0002a
:102660000090cb000000cb00b58780001381c00034
:102670000090cb000000cb00e4878000d58780006d
:102680001381c0000000cb000000cd00d08788007f
:10269000c4878000f58780001301c0000588800092
:1026a0001381c0000090cb000000cb002588800083
:1026b0001381c0000090cb000000cb00e4878000b5
:1026c000358880001381c0000000cb000000cd00e1
:1026d0003088880000000600d08780004188800094
:1026e0000000ca000180ca000030cb000000cd000d
:1026f0005088880030888000818880000000ca00ef
:102700000180ca000030cb000000cd009088880016
:10271000000006006488800055888000778880006b
:102720001301c0000000cd00110009000700d9000e
:10273000b0878800000006006488800095888000cb
:10274000778880001301c0000000cd00110009004f
:102750000700d900208888000000060090878000cc
:102760000000ca00b4878000a58880001381c000e3
:102770000000cb00948780001381c0000090cb0044
:102780000000cb000000cd0090878800008880000a
:102790000000ca0024888000a58880001381c00042
:1027a0000000cb00048880001381c0000090cb00a3
:1027b0000000cb000000cd0000888800a0878000ca
:1027c0000000ca0094878000b58880001381c00093
:1027d0000000cb00a48780001381c0000090cb00d4
:1027e0000000cb000000cd00a0878800108880008a
:1027f0000000ca0004888000b58880001381c000f2
:102800000000cb00148880001381c0000090cb0032
:102810000000cb000000cd001088880000000600fa
:1028200000898000f4888000c58880000000ca000c
:102830001381c0000000cb00048980001381c00018
:102840000090cb000000cb000000cd000089880084
:1028500000000600841f7800851f780000027800c1
:10286000810278001301c0000000cd00cf02780083
:102870004f02780000000600821f780001017800f6
:10288000110009000200d9004f0178000000060085
:10289000800378000000eb001700e6000000000055
:1028a0000000000000000000889fbe008781cf006c
:1028b000e28051000139dd00000028008002510053
:1028c00005027800c12add000600240006a3b90035
:1028d00005a4b90000002f000981b90006034100da
:1028e0008783490005ccb900008020000981b90028
:1028f000060341008783490005ccb90000b02f00d2
:102900000981b900060341008783490005ccb9005d
:10291000003820000981b90006034100878349007f
:1029200005ccb90000d62f000981b900060341008b
:102930008783490005ccb900002120000981b90036
:10294000060341008783490005ccb90030e52f001c
:102950000981b90006034100878349004f33de0037
:102960004138dd0000037300cfbbde00000028000b
:1029700006034000e0834b004109de0070001100b7
:102980000233de000038dd000003730082bbde008e
:102990000100a3000500390024a8250004b0b900f7
:1029a0004f00de00c108dd00010370000600780062
:0829b0004f04be000000060008
:020000040000fa
:1029b8000012000000010000820000000000480032
:1029c800068c0c00c812f900181a1f0028251f00d1
:1029d8002bfc3000ba3656003cce41001d47400063
:1029e8004c335100f55582005ad75e00f262cf0091
:1029f800666d6a00ca6de20070b5730041768400a6
:102a0800787d7a00297c8a007d9d7e00627fd800cf
:102a18007fff7f00d87f62007f9d7e008a7d29002e
:102a28007c7d7a008478410076b57300e270ca0034
:102a38006d6d6a00cf66f20062d75e00825af500bb
:102a480055335100404c1d0047ce4100563cba005a
:102a580036fc30001f2b2800251a1f00f918c80063
:102a6800128c0c004806000000b8f90074f3380016
:102a7800ed07e700e6e0d800dae1d40004cf46002d
:102a8800c9aac30032bee300b8c0b300cdae0b0084
:102a9800aa7ea50029a10e009d31990093953600c4
:102aa800921e8f004b8cbf00897c87008385d700de
:102ab8008376820063819e00802880000180280040
:102ac800809e80006381760082d7830083857c00a6
:102ad80087bf89004b8c1e008f369200939531007a
:102ae800990e9d0029a17e00a50baa00cdaec000bd
:102af800b3e3b80032beaa00c346c90004cfe10060
:102b0800d4d8da00e6e00700e738ed0074f3b8003f
:102b1800f9000000501000009c0000008000000038
:102b2800ec1000005a0000008200000000000000c5
:102b3800000000000000000000000000000000008d
:102b4800000000000000000000000000000000007d
:102b5800000000000000000000000000000000006d
:102b6800000000000000000000000000000000005d
:102b7800000000000000000000000000000000004d
:102b8800000000000000000000000000000000003d
:102b9800000000005b00300075000000554702008f
:102ba80000000000b61100002000000082000000b4
:102bb8000020e40012fb090011058b000246010009
:102bc800a30051000029000014000a0000050000bd
:102bd800030001000001000000000000781100005f
:102be8002e000000800000004611000032000000a6
:102bf80080000000a61100000e0000008200000006
:102c080046116500114611002d24450000230000df
:102c180000000000d6110000100000008000000035
:102c2800b411000002000000800000000000000055
:020000040000fa
:102c38000000fa000002eb002470880034f921003b
:102c4800047088000002eb00747088000e2ea80043
:102c58000e0ea8000002eb00a4708800f43f2000cc
:102c6800847088000002eb00f47088001e0ea80033
:102c78001e2ea8001e4ea8001e6ea8000002eb0023
:102c880024718800f4ff2b00047188000002eb0017
:102c9800747188002e4ea8002e2ea8002e0ea800b3
:102ca800214ea9000002eb00a47188000416200040
:102cb8008471880030cea90030aea9000002eb0074
:102cc8002472880004002f00047288000002eb00c0
:102cd800747288004faea8000002eb00a47288004e
:102ce8003417200084728800502ea9000002eb00df
:102cf80024738800043c200004738800153a80007f
:102d0800f4fb2f0004836200640420007505200092
:102d180027742000844b7800854b7800864b780018
:102d28003536800004f82f008482620054032000a6
:102d3800048272003436880075348000f40f2c0049
:102d48008482620004302000048272007434880097
:102d58007535800004f82f00048262008401b300f6
:102d68007435880075358000f40f2800848262006d
:102d78000460230004827200743588008535800061
:102d880004f82f0084826200040620000482720086
:102d980084358800153a80000404200004837200fa
:102da800640420007505200027742000844b7800f7
:102db800854b7800864b78000080fa0000000600fa
:102dc800c4828000d5828000e68280000400e00092
:102dd800190035000500e00007003500850178007e
:102de8000401780045000700f48288000583880004
:102df80016838800280037000600e0000700350029
:102e080084017800060178003c000700f6828800fb
:102e180004838800158388001f0037008501ea00b5
:102e28000601ea0035000700f5828800048388005f
:102e380016838800180037000500e00010003500f0
:102e48000600e000070035008601780005017800db
:102e58002a000700f582880006838800148388000a
:102e68000d0037008601ea000401ea00230007008c
:102e7800f4828800068388001583880006003700de
:102e88008401ea000501ea001c000700f6828800b8
:102e98000583880014838800f482800065618000bf
:102ea8008582d10015a0e600020037003561880050
:102eb8000100370034618800048380006562800067
:102ec8008582d10015a0e60002003700356288002f
:102ed8000100370034628800148380006563800035
:102ee8008582d10015a0e60002003700356388000e
:102ef8000100370034638800000006005610d40033
:102f08000282b800050178000382b80085017800c4
:102f18005690bf0082005000838050008180d1000d
:102f2800010378008280400081027800838040009d
:102f380001027800000006000200fa00881f7800ed
:102f4800000f7800e48b80009e0f520003003500cc
:102f5800348c8000d48b88002a003700e48b8000f2
:102f68001e021200f1ff27000400780040fe07004f
:102f780000027800148c8800148c80004ba2de00bc
:102f8800048c8800158c8000f47f20000482620085
:102f98004422dd00248c8800048c800067024200f3
:102fa800840242008417210004824200140478003d
:102fb800258c8000048c80006702420004034200d4
:102fc800841721000402430014037800048c800055
:102fd8000402e800670242008403420084172100cb
:102fe800048243001402780004025300850078002c
:102ff8000400780015fe070000027800040254005f
:10300800d48b8800d48b8000040078004f047800ab
:103018000080fa00000006000000fa00f4ff230018
:10302800e48b88000002eb00348c880034172a00f7
:10303800448c8800a4ae2700548c8800243a2600cb
:10304800648c880074ca2200748c88006441200053
:10305800848c880054172e00948c880034792d00b5
:10306800a48c8800e46f2c00b48c8800849e2b000c
:10307800c48c880074822a00d48c8800b42e2a005c
:10308800e48c880094f42900f48c880074ba290030
:10309800048d880054802900148d8800e445290097
:1030a800248d88000080fa00000006000200fa0063
:1030b800881f7800891f78004400f800080028005d
:1030c8000800e10002003a0000002c002900370047
:1030d8000808e10002003a00f0ff27002500370049
:1030e8008e0478008003eb000100e0000a003b003a
:1030f800810c78000000e0000400340080007800b3
:103108001900ea0007002c00030037008000ea00dd
:1031180019007800f7ff23008080ca008100ca00e8
:10312800681b2100f5ff2700090008000f000000b8
:103138001900cd000680cd000600e000060033002f
:103148001201c4001903780012c1c40038027800c3
:1031580087031a00050037001241c40019037800dc
:103168001281c40038027800870342008502d1002a
:103178000700ea004400f900cf0478004f04780003
:103188000080fa000000060020028000809fbe0038
:10319800070b210000082000b70078000101b800e3
:1031a80083814100052021000200e00008003a0068
:1031b80005824100941b78000344b0000582410059
:1031c800940b78004f00be00200288000000060023
:1031d800058241001403780083c1e800058241009c
:1031e800140013000090b800869b4000e343b00031
:1031f80005824100058241001403780083c1e8007c
:1032080005824100140013000090b800868b40002e
:103218004f00be0020028800000006001108980038
:1032280000000600f0039000800a90000582530019
:103238005080ca00c002780045018800a0029000b2
:103248001301c0007c00c8000000cb000600cc00c1
:10325800d00090000130e10004003c00e000900044
:103268000130e10001003400860078001108980060
:10327800b00290001301c00001035300c002900087
:103288001241c4000000cb005000cc0015018000a2
:103298000520780000000600749e2400b685800092
:1032a8001301c100c78580001201c2001201c200cb
:1032b800b6858000d68588000700cc00e7858800a1
:1032c80094858000a58580001301c2001201c40006
:1032d800e30b21003300cc001301c5001241c100eb
:1032e8001300cc0000000600201880006610b5000e
:1032f80080027800248380001301c0000400cc0001
:10330800b4858800301880006a10b5008002780003
:10331800448380001301c0000400cc00c4858800e9
:1033280000000600308388005183880000000600f2
:103338003486800045868000c582880096ed260088
:103348008502ea008500ca001201c1000000cc0015
:10335800d08288008500ca001241c1000000cc005c
:10336800e08288000000060016868000278680001c
:1033780094858000a58580001301c4001241c20015
:10338800630c21003300cc001301c1001201c500f9
:103398001300cc0000000600000290000518800011
:1033a8001301c0000400cc001400980000000600bf
:1033b800041880008482d1000400240004824200a2
:1033c800a489880000000600d8898000e989800067
:1033d800110009000940d900f086880000000600a5
:020000040000fa
:020000040005f5
:045fe000deff0000e0
:020000040000fa
:020000040005f5
:045fe400ffff0000bb
:020000040000fa
:020000040005f5
:045fe8007fff000037
:020000040000fa
:020000040005f5
:045fec007dff000035
:020000040000fa
:020000040005f5
:045ff00038ff000076
:020000040000fa
:020000040005f5
:045ff400cfff0000db
:00000001FF
