:020000040000fa
:080000000002040000000000f2
:020000040000fa
:10000800cc020000cc020000cc020000cc020000b0
:10001800cc020000cc020000cc020000cc020000a0
:10002800cc020000cc020000cc020000cc02000090
:10003800cc020000cc020000cc020000760b0000cd
:10004800cc020000cc020000cc020000cc02000070
:10005800cc0200000e070000cc020000cc02000019
:10006800cc020000cc020000cc020000c60900004f
:10007800cc020000cc020000cc020000cc02000040
:10008800cc020000cc020000cc020000cc02000030
:10009800cc020000cc020000ae120000cc0200002e
:1000a800cc020000cc020000cc020000cc02000010
:1000b800cc020000cc020000cc020000cc02000000
:1000c800cc020000cc020000cc020000cc020000f0
:1000d800cc020000cc020000cc020000cc020000e0
:1000e800cc020000cc020000cc020000cc020000d0
:1000f800cc020000cc020000cc020000cc020000c0
:10010800cc020000cc020000cc020000cc020000af
:10011800cc020000cc020000cc020000cc0200009f
:10012800cc020000cc020000cc020000cc0200008f
:10013800cc020000cc020000cc020000cc0200007f
:10014800cc020000cc020000cc020000cc0200006f
:10015800cc020000cc020000cc020000cc0200005f
:10016800cc020000cc020000cc020000cc0200004f
:10017800cc020000cc020000cc020000cc0200003f
:10018800cc020000cc020000cc020000cc0200002f
:10019800cc020000cc020000cc020000cc0200001f
:1001a800cc020000cc020000cc020000cc0200000f
:1001b800cc020000cc020000cc020000cc020000ff
:1001c800cc020000cc020000cc020000cc020000ef
:1001d800cc020000cc020000cc020000cc020000df
:1001e800cc020000cc020000cc020000cc020000cf
:1001f800cc020000cc020000cc020000cc020000bf
:10020800cc020000cc020000cc020000cc020000ae
:10021800cc020000cc020000cc020000cc0200009e
:10022800cc020000cc020000cc020000cc0200008e
:10023800cc020000cc020000cc020000cc0200007e
:10024800cc020000cc020000cc020000cc0200006e
:10025800cc020000cc020000cc020000cc0200005e
:10026800cc020000cc020000cc020000cc0200004e
:0c027800cc020000cc020000cc02000010
:020000040000fa
:100400000f3021000eff28000e01880000000000c0
:1004100000012000200288000c0007004054210049
:10042000010020000f000700000020000000e00095
:100430000200320000000200000000000004020080
:10044000000000000040da000000fe000002200072
:100450000000e0000200320000202000900188002f
:1004600000000600a1028800800078000000eb0078
:100470001a003700e280400054a0b4009101ba0095
:10048000e280400054a0b4009102ba00e280400033
:1004900054a0b4000002eb00472bde00f507b200c9
:1004a000a6018800602ce10008003a000049eb003a
:1004b0000201e800020039003420ec0002f0a00044
:1004c0008301e900f9ff3e00040037006128e100e4
:1004d000010032000082eb00040007001101ba00a5
:1004e0000200e000e3ff3a000000060004d0a30091
:1004f000e20f49001c003900810278003549ba003a
:100500000201e800020039003420ec0002f0a000f3
:100510008301e9000f0032002549ba000201e8001a
:10052000020039003420ec0002f0a0008301e90051
:10053000080032000400e0000600320015c9ba00cd
:100540000201e800020039003420ec0002f0a000b3
:100550008301e9008180e80054a0b4000300e000ba
:10056000e2ff3a00000006009102ba000559780047
:100570008301e900f7ff3200c82ade000559780040
:100580008301e900f3ff32000400e000f1ff3200d4
:1005900011d9ba00eeff37000040da000000fe007b
:1005a0000000fa00001020003202b6000000e9004e
:1005b0004f00de000080fa00000006000000fa0094
:1005c00031e2a90023c8a90023e8a90003c8a900b3
:1005d00003e8a9000080fa00000006000000fa000d
:1005e00003c8a90003e8a900e7026000c82add00eb
:1005f000f48f2f007642800006026200050272002e
:1006000074428800800278000507b200c82add0025
:10061000f4ff2800764280000602620005027200a4
:1006200074428800e8026000c32ade00e1826200b2
:10063000ce2add00f4ff2b00164180000602620086
:1006400005027200144188000008b2004700de0075
:10065000610060004f00dd00f4ff270015418000bd
:100660000502620000027200144188000080fa0056
:10067000000006000000fa00901180006140600058
:100680000080fa00000006000000fa00c211880095
:1006900080118800911188000080fa000000060097
:1006a0000000fa008411800066026200e60f52002a
:1006b0000c003a00030037003322ab00feff3a0083
:1006c000a5118800b0027800e08f5200faff3a00ce
:1006d000070037003322ab00feff3a008502fb0023
:1006e000a5118800b0427800e0cf5200f9ff3a002f
:1006f0000080fa00000006000000fa00841180006b
:1007000066026200e60f520002003a00b01180005b
:1007100002003700b0118000f00fb2000080fa0034
:10072000000006000000fa008411800066026200ea
:10073000e60f520001003200f00fb200a011880055
:100740000080fa000000060000f0a7000000ea00a8
:1007500000f0a7000080ea00000006006022b80058
:10076000060220000000d0008180d2000482d20066
:100770008582d2000000a0000202520083825a004b
:10078000030031000202420083824a000000a100ff
:100790000603e900f3ff3a00000006000000fa003b
:1007a0000002780002003700015a78000201e900d7
:1007b000e00f5100fcff3a000080fa000000060044
:020000040000fa
:1007c00052540000444d0000002b00002452000051
:1007d000544400004d2300001b860000002b000045
:1007e000244f00004b2300004c080000002d0000a7
:1007f0002445000001230000d36a0000000000002f
:020000040000fa
:100800000000fa0044042000343a8800243a8000b2
:100810000460a1000470a100243a8800253a8000f9
:1008200004fe2f0004826200243a88003600200073
:1008300084072000a509200037742000844b78002d
:10084000854b7800864b7800160020006404200059
:100850007505200027742000844b7800854b7800b4
:10086000864b780000000000153a80000400270045
:100870008482620004002300848f5200faff3a0051
:1008800000000000153a800004022000048262008b
:10089000e00f5200fbff32001f0907008102070032
:1008a000170a07000002eb00648388006c50a80060
:1008b000157380000408200004826200e00f5200db
:1008c0001d003a00157380000404200004826200b9
:1008d000e00f520018003a009c02070015738000d8
:1008e0000408200004826200e00f520012003a0067
:1008f000157380000404200004826200e00f52009f
:100900000d003a006d90a8000000000015738000f3
:100910000408200004826200e00f520005003a0043
:10092000157380000404200004826200e00f52006e
:10093000f6ff3200850207006cf0a9006c10a800d9
:100940000002eb001489880021a8a90065010700b6
:1009500000427800e04f5200040032006c30a900e1
:10096000040078000080fa00000006006022b80051
:1009700074838800858388006022b800148488000e
:10098000258488006022b800b4848800c58488006b
:10099000147080004822de00614262008482fb0005
:1009a0009472800004427800614262000482fb007d
:1009b0000402420004037800147180004622de0025
:1009c000614262000482fb00040243000402420010
:1009d00004824200b4868800ea04070001a8a90046
:1009e00021a8a8006483800062026200e00f520028
:1009f00046003a00380037001573800004042000d8
:100a000004826200e00f520033003a004f020700f8
:100a1000157380000404200004826200e00f52007d
:100a200007003a006583800004022000048262000f
:100a3000e00f520028003a006cb0a80026003700f2
:100a4000658380000402200004826200e00f5200ef
:100a5000210032006cb0a9006583800004082000ea
:100a60000482620004f0a7000402ea000402e90024
:100a70004f22de00044278000482fb006102620023
:100a80004722dd0066838000f5f72f0085026300b2
:100a90000482720064838800658380000420200043
:100aa0000482620004f0a7000402ea000402e900e4
:100ab0004f22de00044278000482fb0061026200e3
:100ac0004922dd0066838000f5df2f008502630088
:100ad000048272006483880015738000040820007b
:100ae00004826200e00f5200c3ff3a0000000000e1
:100af000157380000408200004826200e00f520099
:100b0000fbff3200f70007006c30a8006cd0a80093
:100b1000070037000000000005003700000000005b
:100b20000300370000000000010037000000000053
:100b300025898000f4182000848f5200f5ff3600cc
:100b40006483800062026200e00f520001003a00fc
:100b500043003700157380000408200004826200ff
:100b6000e00f520015003a00f801070015738000ed
:100b70000408200004826200e00f520006003a00e0
:100b80006483800070026200e00f52000b003a00a4
:100b90006c90a80009003700648380007002620036
:100ba000e00f5200050032006c90a9006c30a900e3
:100bb0000002eb00148988002900370015738000bb
:100bc0000404200004826200e00f5200d3ff3a00c8
:100bd000de01070015738000040420000482620017
:100be000e00f520007003a006583800004022000f5
:100bf00004826200e00f5200caff3a006cb0a80005
:100c0000cbff37006583800004022000048262006d
:100c1000e00f5200c5ff32006cb0a9006583800070
:100c2000042020000482620004f0a7000402ea000d
:100c30000402e9004f22de00044278000482fb0037
:100c4000610262004922dd0066838000f5df2f002b
:100c5000850263000482720064838800b4ff370059
:100c600035ff37000000fa0044e0a80044c0a800a7
:100c70004480a900000d2100010a0700958680002c
:100c800004e82300048242004487880044878000ef
:100c9000e00f520002003d000002eb004487880094
:100ca000658380000420200004826200e00f52006f
:100cb00003003200448780000402ea004487880071
:100cc0004587800024002000110009008402d8001c
:100cd00000027800548588006583800004002100ac
:100ce00004826200e00f520003003200e4a22300fd
:100cf000748588001e0037006483800064026200ef
:100d0000e00f520003003200548580007485880093
:100d100017003700d4898000f30f5200140036000a
:100d200055858000b4992f00848f5200060035004d
:100d30005585800054662000848f520002003c00dc
:100d40000002eb0054858800f4868000348588001a
:100d50005485800024858800600921006b09070004
:100d600044858000748588000002eb00d4898800e7
:100d7000548580000400780073fe070000027800ac
:100d800004007800a6080700000278006485880047
:100d9000f4858000f483880064858000e483880003
:100da000e0062100590907000484800014868800a9
:100db0001586800014868000850078000400780085
:100dc000d8060700000278006489880064898000e2
:100dd000453827000482520004007800e00607002e
:100de0000002780064848800648480000402ea00c1
:100df0007484880004868000948488007485800050
:100e0000848488002008210040090700a484800011
:100e1000248688000080fa00000006003600f800f2
:100e2000809fbe00829fbe00849fbe00869fbe0042
:100e30000000fa0001a8a900d48980000402e8009b
:100e4000d4898800248980000402e800248988006d
:100e50006483800062026200e00f520008003200ea
:100e60005b090700e7030700450907007dff07004e
:100e7000ff08070076090700670907000a0807004e
:100e8000147080004822de00614262008482fb0010
:100e90009472800004427800614262000482fb0088
:100ea0000402420004037800147180004622de0030
:100eb000614262000482fb0004024300040242001b
:100ec00004824200b48688000080fa004f03be000e
:100ed0004f02be004f01be004f00be003600f900b9
:100ee000004006000000fa00c1e8a9000002eb0083
:100ef0002487880044e0a800948828008508200002
:100f000094828800a582880094828000a582800057
:100f100004027800648d880004e224008482880042
:100f200084eb23008486880044062100f5ff270017
:100f3000050a780044062100f5ff270025029800e5
:100f400064052100c5da2000050a780004c02800e5
:100f50002454880004c028006454880004c0280079
:100f6000a454880014012800e4548800f4082000e8
:100f700014548800f400200014558800c4da2000be
:100f800044618800c4da200044628800c4da20008a
:100f90004463880094b52100246088004420200028
:100fa000046188004420200004628800442020005e
:100fb0000463880004002c001461880004002c00e5
:100fc0001462880004002c00146388000002eb0007
:100fd000546188000002eb00546288000002eb00bc
:100fe0005463880064042000646188006404200065
:100ff0006462880064042000646388003400200078
:10100000246188003400200024628800340020001d
:10101000246388000002eb00146088004402200072
:1010200034618800440220003462880044022000b9
:1010300034638800744380000480a1000490a10000
:1010400004a0a000744388007443800004c0a10081
:1010500004d0a10004e0a000744388008443800011
:101060000400a1000410a1000420a0008443880013
:101070000bc8a9002bc8a900040028000460880040
:101080000002eb0034608800041980000480a00096
:101090000490a00004198800041980000450a000e6
:1010a0000460a0000470a100041988002083a90036
:1010b0002063a8002043a8000002eb001419880058
:1010c000141980000480a1000490a0001419880065
:1010d0000002eb002419880064c0b30004407800cb
:1010e00024e3b7000002eb00441988004519800092
:1010f00004fe2f0004826200d400b300441988006b
:101100002603a8000002eb008419880021e3a80050
:101110008e000700341880008402780024188000b4
:101120008500780004007800b80807000028a900ae
:101130002028a900044280000440a1000450a1001e
:101140000460a0000442880014c02100040a880042
:10115000040a800004a0a00004b0a10004c0a10003
:10116000040a8800040a80000400a0000410a10002
:101170000420a100040a88000002eb00140a880081
:101180002028a90000a8a90020a8a90014428000d6
:101190000440a1000450a1000460a0001442880093
:1011a000440a800004a0a00004b0a10004c0a10073
:1011b000440a8800440a80000400a0000410a10032
:1011c0000420a100440a88000002eb00540a8800b1
:1011d00020a8a90004a8a90024a8a900944280007e
:1011e0000440a1000450a1000460a00094428800c3
:1011f000840a800004a0a00004b0a10004c0a100e3
:10120000840a8800840a80000400a0000410a10061
:101210000420a100840a88000002eb00940a8800e0
:1012200024a8a90011e1a9001021a90010c1a9005a
:10123000840880000440a0000450a00084088800b6
:101240000002eb00340888000082eb00640888008c
:101250001442800004c0a10004d0a00004e0a1005a
:101260001442880000e8a90020e8a80011e1a800c5
:10127000090ea80028cea800580ea80044428000fd
:1012800004c0a10004d0a00004e0a00044428800f3
:101290002268a8000042eb00044078000080fa00b9
:1012a000000006000000fa006466200094838800b5
:1012b00024042000a4838800f4ff2700b48388005e
:1012c000f4ff2700c4838800c48380000402ea007e
:1012d000d4838800e00621000a0807006466200025
:1012e000348488002404200044848800f4ff27000c
:1012f00054848800f4ff270064848800648480009c
:101300000402ea007484880020082100fd07070019
:1013100064662000d484880024042000e4848800cb
:10132000f4ff2700f4848800f4ff2300048588007c
:10133000048580000402ea00148588006009210009
:10134000f00707000080fa00000006000400fa0021
:101350006022b800048fbe00040037001400200093
:10136000050020001e0f42005e974a00f469280025
:10137000150020001e03be00840f5300858f5b0004
:10138000f6ff34000080fa00000006003600f80086
:10139000809fbe00829fbe00849fbe00869fbe00cd
:1013a0000400fa0080858000000f78003408800077
:1013b0001407980025718000044020000482620018
:1013c00004f0a7000402ea000402e9004f22de0054
:1013d000044278000482fb00610262004a22dd00c0
:1013e00026718000f5bf2f00850263000482720021
:1013f000247188006583800004002100048262005b
:10140000e00f5200340032000002eb00a486880096
:10141000147080004822de00614262008482fb007a
:101420009472800004427800614262000482fb00f2
:101430000402420004037800147180004622de009a
:10144000614262000482fb00040243000402420085
:1014500004824200a4868800b5868000a4868000ad
:10146000848f520099003200a486800084024200da
:10147000841d2100048242001e0a7800b500070086
:10148000a4868000b4868800548d80000402e800a1
:10149000548d8800548d8000eb0f52008b00360075
:1014a0006d90a9000002eb00548d8800a486800096
:1014b00084024200841d21000482420094027800cc
:1014c0005455250004824200048788000487800068
:1014d000848588007d0037000002eb0024878800a7
:1014e0000002eb00a4868800147080004822de0011
:1014f000614262008482fb009472800004427800a2
:10150000614262000482fb0004024200040378008e
:10151000147180004622de00614262000482fb00fa
:10152000040243000402420004824200a4868800b0
:10153000b5868000a4868000848f5200630032004c
:101540000002eb00340888000042eb000440780001
:10155000d8f0b700a40a800014878800360107007d
:10156000a4868000b48688001e029000cfa2de0010
:10157000b4898800c5898800e48680000402e800f8
:10158000e4868800b6898000c7898000f4ff2700c0
:1015900005002000840f5300858f5b001600360085
:1015a000f4ff270005002000b4898800c589880061
:1015b0000002eb00f48688002571800004402000c2
:1015c0000482620004f0a7000402ea000402e900b9
:1015d0004f22de00044278000482fb0061026200b8
:1015e0004a22dd0026718000f5bf2f0085026300ce
:1015f0000482720024718800a48980006123b900ec
:10160000b4898000c5898000840f5300858f5b00fa
:1016100006003e00840d210014427800e04f520085
:1016200002003a00a20707001d003700a4898000cd
:101630006123b900b4898000c5898000840f5300fc
:10164000858f5b0016003600f4ff2700f4868800c3
:10165000a4898000cfa2de00b4898800c5898800f3
:1016600025718000044020000482620004f0a7007d
:101670000402ea000402e9004f22de00044278007e
:101680000482fb00610262004a22dd0026718000b4
:10169000f5bf2f0085026300048272002471880068
:1016a000648380004b22de00e1426200648380009c
:1016b0004a22de006142620084cf52000300320001
:1016c000f48680000402ea00f48688000268a9001b
:1016d0000080fa004f03be004f02be004f01be0063
:1016e0004f00be003600f90000400600801f780061
:1016f000849fbe000000fa0000e8a900850d2100cb
:101700009542780014c0b300e1cf520001003e00c2
:101710000042eb008542e80005407800d8f0b700b1
:10172000e04f520007003200f4ff2700d486880003
:101730000002eb00f486880024c0b3000440780067
:10174000d8f0b7000080fa004f02be004f007800ca
:10175000004006000000fa00508d8000e90f5000a4
:10176000b3003a00a0868000e30f5000440032002e
:10177000e30f500005003e00e10f5000250032004d
:10178000e20f500059003200a9003700e50f500069
:1017900005003200e50f50008a003900e60f5000c6
:1017a0006d003200a2003700b0868000e40f5000c8
:1017b00002003a006d50a9009d003700b0868000fd
:1017c000e10f500002003a006d50a8009800370069
:1017d00021718000004020000080600000f0a70020
:1017e0000000ea000000e9004f00de000040780041
:1017f0000080fb00610060004a00dd002271800073
:10180000f1bf2f008100610001007000207188008d
:1018100087003700b0868000e50f500002003a00d4
:101820006d50a90082003700b0868000e30f5000a1
:1018300002003a006d50a8007d0037002171800041
:10184000004020000080600000f0a7000000ea00d7
:101850000000e9004f00de00004078000080fb003f
:10186000610060004a00dd0022718000f1bf2f009e
:101870008100610001007000207188006c00370059
:10188000b0868000e10f500002003a006d50a900c0
:1018900067003700b0868000e20f500002003a0077
:1018a0006d50a800620037002171800000402000c8
:1018b0000080600000f0a7000000ea000000e900de
:1018c0004f00de00004078000080fb0061006000f7
:1018d0004a00dd0022718000f1bf2f00810061000d
:1018e000010070002071880051003700b086800030
:1018f000e30f500002003a006d50a9004c00370081
:10190000b0868000e60f500002003a006d50a8003b
:1019100047003700217180000040200000806000f7
:1019200000f0a7000000ea000000e9004f00de0020
:10193000004078000080fb00610060004a00dd008c
:1019400022718000f1bf2f00810061000100700052
:101950002071880036003700b0868000e20f50000a
:1019600002003a006d50a90031003700b0868000b7
:10197000e40f500002003a006d50a8002c00370020
:1019800021718000004020000080600000f0a7006e
:101990000000ea000000e9004f00de00004078008f
:1019a0000080fb00610060004a00dd0022718000c1
:1019b000f1bf2f00810061000100700020718800dc
:1019c0001b003700b0868000e60f500002003a008e
:1019d0006d50a90016003700b0868000e50f50005a
:1019e00002003a006d50a8001100370021718000fc
:1019f000004020000080600000f0a7000000ea0026
:101a00000000e9004f00de00004078000080fb008d
:101a1000610060004a00dd0022718000f1bf2f00ec
:101a2000810061000100700020718800000000004a
:101a30000080fa00000006000000fa00a086800086
:101a4000e30f500044003200e30f500005003e0059
:101a5000e10f500025003200e20f50005900320023
:101a6000a9003700e50f500005003200e50f5000d7
:101a70008a003900e60f50006d003200a2003700e6
:101a8000b0868000e40f500002003a006d70a9009b
:101a90009d003700b0868000e10f500002003a0040
:101aa0006d70a80098003700217180000040200070
:101ab0000080600000f0a7000000ea000000e900dc
:101ac0004f00de00004078000080fb0061006000f5
:101ad0004a00dd0022718000f1bf2f00810061000b
:101ae000010070002071880087003700b0868000f8
:101af000e50f500002003a006d70a9008200370027
:101b0000b0868000e30f500002003a006d70a8001c
:101b10007d003700217180000040200000806000bf
:101b200000f0a7000000ea000000e9004f00de001e
:101b3000004078000080fb00610060004a00dd008a
:101b400022718000f1bf2f00810061000100700050
:101b5000207188006c003700b0868000e10f5000d3
:101b600002003a006d70a90067003700b08680005f
:101b7000e20f500002003a006d70a80062003700ca
:101b800021718000004020000080600000f0a7006c
:101b90000000ea000000e9004f00de00004078008d
:101ba0000080fb00610060004a00dd0022718000bf
:101bb000f1bf2f00810061000100700020718800da
:101bc00051003700b0868000e30f500002003a0059
:101bd0006d70a9004c003700b0868000e60f500001
:101be00002003a006d70a8004700370021718000a4
:101bf000004020000080600000f0a7000000ea0024
:101c00000000e9004f00de00004078000080fb008b
:101c1000610060004a00dd0022718000f1bf2f00ea
:101c200081006100010070002071880036003700db
:101c3000b0868000e20f500002003a006d70a900eb
:101c400031003700b0868000e40f500002003a00f7
:101c50006d70a8002c00370021718000004020002a
:101c60000080600000f0a7000000ea000000e9002a
:101c70004f00de00004078000080fb006100600043
:101c80004a00dd0022718000f1bf2f008100610059
:101c900001007000207188001b003700b0868000b2
:101ca000e60f500002003a006d70a90016003700e0
:101cb000b0868000e50f500002003a006d70a80069
:101cc000110037002171800000402000008060007a
:101cd00000f0a7000000ea000000e9004f00de006d
:101ce000004078000080fb00610060004a00dd00d9
:101cf00022718000f1bf2f0081006100010070009f
:101d00002071880000000000a0868000b086880056
:101d1000608380004b00de00e14060006083800053
:101d20004a00de006140600080cf500009003a00a8
:101d3000a086800080004000801d210000804000bf
:101d40009000780000002400008040000087880098
:101d500008003700a086800080004000801d210020
:101d60000080400090007800b0aa2600008040006b
:101d70000087880000878000808588000080fa0046
:101d8000000006000000fa00d430ef001070800060
:101d90004800de00614060008080fb00907280009f
:101da00000407800614060000080fb0000004000bf
:101db00000017800107180004600de006140600084
:101dc0000080fb0000004100000040000080400057
:101dd000a0868800a086800080004000801d210031
:101de00000804000900078005055250000804000a1
:101df0000087880000878000808588000080fa00c6
:101e0000000006000000fa0061838000000021004d
:101e1000008060000000e0000f00320001898000b7
:101e2000608d8000808f50000700310000898000a5
:101e30000000e800008988000000eb008085880031
:101e4000aa31ef004b003700808580000000e800d9
:101e50008085880047003700f08680008000780089
:101e600001f0a7008100ea0080142000808f50005c
:101e70000c003c00ae31ef00a086800080004000e6
:101e8000801d210000804000900078005055250002
:101e900000804000008788000087800080858800df
:101ea0000d003700a48d8000b58d8000b0898000c2
:101eb000c18980000001be000400be0027fa0700af
:101ec000808d8800918d8800808d8000918d8000ac
:101ed00000007800708d8800608380004b00de0079
:101ee000e1406000608380004a00de0061406000e5
:101ef00080cf500010003a0080858000800078007c
:101f0000708d800000804000808588008185800081
:101f10000087800080805000a0aa2200808f50009f
:101f20001400340001878000a0aa22000080400035
:101f3000808588000f003700808580008000780051
:101f4000708d8000008050008085880001878000af
:101f50008085800080805000a0aa2200808f5000e1
:101f6000040034000187800060552d00008040008f
:101f7000808588000080fa00000006000000fa005a
:101f80008ef9070090f22f0094f9070004402c000e
:101f9000448b8800d4752900548b8800558b8000b1
:101fa000448b8000a20420008500780004007800a3
:101fb000b5f907006611a9006611a900e48c80003c
:101fc000048d8800e48c8000e48a8800e48c800022
:101fd000f48a88000002eb00040078000080fa0018
:101fe000000006000200fa000002eb00040f780077
:101ff00072f907001e027800040078000080fa00e1
:10200000000006002000fa00348b800061026200ac
:10201000e00f520002003a000082eb004c01370052
:10202000f48a800084027800e48a800004825200ee
:102030008402e800e48a80000081eb0085007800db
:10204000040078007c01070000027800048b8800ff
:10205000048b80004822de00148b8800058b8000f2
:10206000f40f200004826200248b8800f48a800030
:102070000482e800144278000482fb0054079800b0
:10208000f48a80000402e800144278000482fb0015
:1020900064079800e48a80000482e800e48a8800eb
:1020a000148b8000de029000848f52001c013a00e5
:1020b000248b8000ee029000848f520018013a00b9
:1020c000e48c80000402e800144278000482fb00e3
:1020d0006123b90044fb2f00f5ff2f0006024200e8
:1020e00087824a007602200007002000860f5200f7
:1020f000878f5a0001013e0004060100cb00370023
:1021000093003700fd003700fc003700fb0037006c
:10211000fa003700f9003700f8003700f700370001
:10212000f6003700f5003700f4003700f300370001
:10213000f2003700f1003700f0003700ef00370001
:10214000ee003700ed003700ec003700eb00370001
:10215000ea003700e9003700e8003700e700370001
:10216000e6003700e5003700e4003700e300370001
:10217000e2003700e1003700e0003700df00370001
:1021800006003700dd003700dc003700db003700d9
:10219000da003700d90037009b003700e48a80005e
:1021a00074079800e48a800064024200e48a880090
:1021b0007e0290001402be0004027800140798000a
:1021c000e48a80009402780035079800e48a800051
:1021d0000482e800e48a88000082eb00048b880017
:1021e000b4c2b3000457980044c2b3001457980017
:1021f0000042eb0024579800058b800070024700d6
:102200000501780021002000040078000a01070081
:1022100000027800048b8800048b800004017800a1
:10222000be0090001e00900003010700000278002d
:10223000048b8800700247000400780018f907003a
:1022400000000000d6f8070000427800e04f52007e
:10225000fcff3a000d0037001e0290001442780087
:102260000482fb009e0290008502e800150798009a
:10227000040078002bf9070000000000c8f80700f0
:1022800000427800e04f5200fcff3a003e0290000e
:1022900004f0a7000402ea000402ea004f22de0074
:1022a00004427800be0290008502e90035079800dc
:1022b000e04f5200e8ff3a0034c2b30004579800e0
:1022c000058b800070024700050178001100200096
:1022d00004007800d800070000027800048b880012
:1022e000048b80000442780014579800048b80000f
:1022f0004822de0004427800245798000002eb00d8
:10230000440798000e0037004e0290007002420011
:102310006e427a000482fb000400780001f9070095
:10232000000000009ef8070000427800e04f5200d5
:10233000fcff3a004e0290000402e80044079800b7
:102340004e029000e20f5200efff3600740037009b
:10235000e48a800074079800e48a800064024200e6
:10236000e48a88007e0290001402be000402780015
:1023700024079800e48a80009402780035079800ca
:10238000e48a80000482e800e48a8800e48a80000d
:10239000040f7800080037001e027800144278000d
:1023a000ae029000844a78002e0290000402e800f9
:1023b000240798001e0fe8003e02900004f0a700da
:1023c0000402ea000402ea004f22de000442780020
:1023d000be0290008502e90035079800e04f5200e8
:1023e000edff3a00f43e280004007800acf8070046
:1023f000000000006af8070000427800e04f520039
:10240000fcff3a0046003700543e280004007800e4
:10241000a3f807000000000061f807000042780000
:10242000e04f5200fcff3a003d0037000082eb0015
:10243000048b8800b4c2b3000457980044c2b300b0
:102440001457980004c2b300245798000042eb00d0
:10245000345798000042eb004457980004c1b30081
:102460005457980034c2b30064579800058b80001d
:102470007002470005017800710020000400780018
:102480006d00070000027800048b8800048b800038
:102490000442780074579800048b80004822de00c4
:1024a00004427800045f98000002eb0044079800a3
:1024b0000e0037004e029000700242006e427a0019
:1024c0000482fb000400780096f80700000000007a
:1024d00033f8070000427800e04f5200fcff3a005a
:1024e0004e0290000402e800440798004e0290005b
:1024f000e80f5200efff360009003700743f280054
:102500000400780066f807000000000024f80700c7
:1025100000427800e04f5200fcff3a00000000004b
:10252000020220008000eb00c01321009bf807008e
:102530006611a900e48c8000048d8800e48c800082
:10254000e48a8800e48c8000f48a88000002eb00b2
:10255000040078000080fa00000006003600f80051
:10256000809fbe00829fbe00849fbe00869fbe00eb
:10257000881f78000000fa0003c8a9000700370090
:10258000088d80005cf807000002780004427800a3
:10259000044c78000802e800048d880035f8070034
:1025a00000427800e04f5200f5ff3a00048d8000b1
:1025b00063025200f48a8800f48c80008402e900ef
:1025c000048d8000848f520005003100e48c80006f
:1025d000048d8800f48c80000402e900f48a8800ed
:1025e000e48a80009442780044c2b30084cf520051
:1025f00007003a00f48a80009442780034c2b300a5
:1026000084cf520004003a006611a800020037008f
:10261000e48c8000048d88000080fa004f0478006c
:102620004f03be004f02be004f01be004f00be0070
:102630003600f900004006001000fa00500798002c
:10264000610798007207980014002a003407980068
:1026500084002000440798000002eb001407980053
:10266000260037006e8b88005e02900014427800ce
:102670000482fb00240798005e0290000402e80038
:10268000540798000002eb00040f78001400370094
:10269000fe0290002e02900004826a006102620035
:1026a00004427800e04f5200060032007e029000a3
:1026b0008402d1003e02900004826a0074079800f0
:1026c000030037007e0290000402d10074079800d6
:1026d0002e0290000402d100240798001e0fe8008b
:1026e0004e0290009e027800848f5200e8ff39006d
:1026f0001e0290000402e800140798009e02900059
:102700006e029000848f5200d6ff39007e02900046
:10271000040078000080fa00000006009487800022
:10272000558780001301c000658780001381c000b9
:102730000090cb000000cb00858780001381c00093
:102740000090cb000000cb00b4878000a5878000fc
:102750001381c0000000cb000000cd00a0878800de
:1027600094878000c58780001301c000d587800052
:102770001381c0000090cb000000cb00f5878000e3
:102780001381c0000090cb000000cb00b487800014
:10279000058880001381c0000000cb000000cd0040
:1027a0000088880000000600a08780001188800053
:1027b0000000ca000180ca000030cb000000cd003c
:1027c0002088880000888000518880000000ca00ae
:1027d0000180ca000030cb000000cd006088880076
:1027e000000006003488800025888000478880002b
:1027f0001301c0000000cd00110009000700d9003e
:10280000808788000000060034888000658880008a
:10281000478880001301c0000000cd0011000900ae
:102820000700d900f087880000000600608780005c
:102830000000ca0084878000758880001381c00072
:102840000000cb00648780001381c0000090cb00a3
:102850000000cb000000cd0060878800d08780009a
:102860000000ca00f4878000758880001381c000d2
:102870000000cb00d48780001381c0000090cb0003
:102880000000cb000000cd00d0878800708780005a
:102890000000ca0064878000858880001381c00022
:1028a0000000cb00748780001381c0000090cb0033
:1028b0000000cb000000cd0070878800e08780001a
:1028c0000000ca00d4878000858880001381c00082
:1028d0000000cb00e48780001381c0000090cb0093
:1028e0000000cb000000cd00e0878800000006005b
:1028f000d0888000c4888000958880000000ca00cd
:102900001381c0000000cb00d48880001381c00078
:102910000090cb000000cb000000cd00d0888800e4
:1029200000000600841f7800851f780000027800f0
:10293000810278001301c0000000cd00cf027800b2
:102940004f02780000000600821f78000101780025
:10295000110009000200d9004f01780000000600b4
:10296000800378000000eb001700e6000000000084
:102970000000000000000000889fbe008781cf009b
:10298000e28051000139dd00000028008002510082
:1029900005027800c12add000600240006a3b90064
:1029a00005a4b90000002f000981b9000603410009
:1029b0008783490005ccb900008020000981b90057
:1029c000060341008783490005ccb90000b02f0001
:1029d0000981b900060341008783490005ccb9008d
:1029e000003820000981b9000603410087834900af
:1029f00005ccb90000d62f000981b90006034100bb
:102a00008783490005ccb900002120000981b90065
:102a1000060341008783490005ccb90030e52f004b
:102a20000981b90006034100878349004f33de0066
:102a30004138dd0000037300cfbbde00000028003a
:102a400006034000e0834b004109de0070001100e6
:102a50000233de000038dd000003730082bbde00bd
:102a60000100a3000500390024a8250004b0b90026
:102a70004f00de00c108dd00010370000600780091
:082a80004f04be000000060037
:020000040000fa
:102a88000012000000010000820000000000480061
:102a9800068c0c00c812f900181a1f0028251f0000
:102aa8002bfc3000ba3656003cce41001d47400092
:102ab8004c335100f55582005ad75e00f262cf00c0
:102ac800666d6a00ca6de20070b5730041768400d5
:102ad800787d7a00297c8a007d9d7e00627fd800ff
:102ae8007fff7f00d87f62007f9d7e008a7d29005e
:102af8007c7d7a008478410076b57300e270ca0064
:102b08006d6d6a00cf66f20062d75e00825af500ea
:102b180055335100404c1d0047ce4100563cba0089
:102b280036fc30001f2b2800251a1f00f918c80092
:102b3800128c0c004806000000b8f90074f3380045
:102b4800ed07e700e6e0d800dae1d40004cf46005c
:102b5800c9aac30032bee300b8c0b300cdae0b00b3
:102b6800aa7ea50029a10e009d31990093953600f3
:102b7800921e8f004b8cbf00897c87008385d7000d
:102b88008376820063819e0080288000018028006f
:102b9800809e80006381760082d7830083857c00d5
:102ba80087bf89004b8c1e008f36920093953100a9
:102bb800990e9d0029a17e00a50baa00cdaec000ec
:102bc800b3e3b80032beaa00c346c90004cfe1008f
:102bd800d4d8da00e6e00700e738ed0074f3b8006f
:102be800f90000005010000096000000800000006e
:102bf800e6100000560000008200000000000000ff
:102c080000000000000000000000000000000000bc
:102c180000000000000000000000000000000000ac
:102c2800000000000000000000000000000000009c
:102c3800000000000000000000000000000000008c
:102c4800000000000000000000000000000000007c
:102c5800000000000000000000000000000000006c
:102c6800000000005b00300075000000000000005c
:102c7800b811000020000000820000000020e400dd
:102c880012fb090011058b0002460100a300510048
:102c98000029000014000a000005000003000100dc
:102ca80000010000000000006e1100002e0000006e
:102cb800800000003c11000032000000800000008d
:102cc8009c1100000e000000820000003c115b0017
:102cd800113c11002d2445000023000000000000d5
:102ce800d81100001000000080000000aa110000a8
:102cf8000a00000080000000b41100000400000079
:102d0800820000005547020000000000000000009b
:020000040000fa
:102d18000000fa000002eb002470880034f921005a
:102d2800047088000002eb00747088000e2ea80062
:102d38000e0ea8000002eb00a4708800f43f2000eb
:102d4800847088000002eb00f47088001e0ea80052
:102d58001e2ea8001e4ea8001e6ea8000002eb0042
:102d680024718800f4ff2b00047188000002eb0036
:102d7800747188002e4ea8002e2ea8002e0ea800d2
:102d8800214ea9000002eb00a4718800041620005f
:102d98008471880030cea90030aea9000002eb0093
:102da8002472880004002f00047288000002eb00df
:102db800747288004faea8000002eb00a47288006d
:102dc8003417200084728800502ea9000002eb00fe
:102dd80024738800043c200004738800153a80009e
:102de800f4fb2f00048362006404200075052000b2
:102df80027742000844b7800854b7800864b780038
:102e08003536800004f82f008482620054032000c5
:102e1800048272003436880075348000f40f2c0068
:102e280084826200043020000482720074348800b6
:102e38007535800004f82f00048262008401b30015
:102e48007435880075358000f40f2800848262008c
:102e58000460230004827200743588008535800080
:102e680004f82f00848262000406200004827200a5
:102e780084358800153a8000040420000483720019
:102e8800640420007505200027742000844b780016
:102e9800854b7800864b78000080fa000000060019
:102ea800c4828000d5828000e68280000400e000b1
:102eb800190035000500e00007003500850178009d
:102ec8000401780045000700f48288000583880023
:102ed80016838800280037000600e0000700350048
:102ee80084017800060178003c000700f68288001b
:102ef80004838800158388001f0037008501ea00d5
:102f08000601ea0035000700f5828800048388007e
:102f180016838800180037000500e000100035000f
:102f28000600e000070035008601780005017800fa
:102f38002a000700f5828800068388001483880029
:102f48000d0037008601ea000401ea0023000700ab
:102f5800f4828800068388001583880006003700fd
:102f68008401ea000501ea001c000700f6828800d7
:102f78000583880014838800f482800065618000de
:102f88008582d10015a0e60002003700356188006f
:102f98000100370034618800048380006562800086
:102fa8008582d10015a0e60002003700356288004e
:102fb8000100370034628800148380006563800054
:102fc8008582d10015a0e60002003700356388002d
:102fd8000100370034638800000006005610d40052
:102fe8000282b800050178000382b80085017800e4
:102ff8005690bf0082005000838050008180d1002d
:1030080001037800828040008102780083804000bc
:1030180001027800000006000200fa00881f78000c
:10302800000f7800948b80009e0f5200030035003b
:10303800e48b8000848b88002a003700948b800002
:103048001e021200f1ff2700040078003cfe070072
:1030580000027800c48b8800c48b80004ba2de007d
:10306800b48b8800c58b8000f47f20000482620046
:103078004422dd00d48b8800b48b800067024200b4
:1030880084024200e41621000482420014047800fd
:10309800d58b8000b48b8000670242000403420095
:1030a800e41621000402430014037800b48b800066
:1030b8000402e8006702420084034200e41621008b
:1030c800048243001402780004025300850078004b
:1030d8000400780011fe0700000278000402540082
:1030e800848b8800848b8000040078004f0478006b
:1030f8000080fa00000006000000fa00a4aa2400dc
:10310800948b88000002eb00e48b880034172a00b7
:10311800f48b8800a4ae2700048c8800243a26008b
:10312800148c880074ca2200248c88006441200012
:10313800348c880054172e00448c880034792d0074
:10314800548c8800e46f2c00648c8800849e2b00cb
:10315800748c880074822a00848c8800b42e2a001b
:10316800948c880094f42900a48c880074ba2900ef
:10317800b48c880054802900c48c8800e445290058
:10318800d48c88000080fa00000006000200fa00d3
:10319800881f7800891f78004400f800080028007c
:1031a8000800e10002003a0000002c002900370066
:1031b8000808e10002003a00f0ff27002500370068
:1031c8008e0478008003eb000100e0000a003b0059
:1031d800810c78000000e0000400340080007800d2
:1031e8001900ea0007002c00030037008000ea00fd
:1031f80019007800f7ff23008080ca008100ca0008
:10320800881b2100f5ff2700090008000f000000b7
:103218001900cd000680cd000600e000060033004e
:103228001201c4001903780012c1c40038027800e2
:1032380087031a00050037001241c40019037800fb
:103248001281c40038027800870342008502d10049
:103258000700ea004400f900cf0478004f04780022
:103268000080fa000000060020028000809fbe0057
:10327800070b210000082000b70078000101b80002
:1032880083814100052021000200e00008003a0087
:1032980005824100941b78000344b0000582410078
:1032a800940b78004f00be00200288000000060042
:1032b800058241001403780083c1e80005824100bb
:1032c800140013000090b800869b4000e343b00050
:1032d80005824100058241001403780083c1e8009b
:1032e80005824100140013000090b800868b40004e
:1032f8004f00be0020028800000006001108980058
:1033080000000600f0039000800a90000582530038
:103318005080ca00c002780045018800a0029000d1
:103328001301c0007c00c8000000cb000600cc00e0
:10333800d00090000130e10004003c00e000900063
:103348000130e1000100340086007800110898007f
:10335800b00290001301c00001035300c0029000a6
:103368001241c4000000cb005000cc0015018000c1
:103378000520780000000600749e2400b6858000b1
:103388001301c100c78580001201c2001201c200ea
:10339800b6858000d68588000700cc00e7858800c0
:1033a80094858000a58580001301c2001201c40025
:1033b800e30b21003300cc001301c5001241c1000a
:1033c8001300cc0000000600201880006610b5002d
:1033d80080027800248380001301c0000400cc0020
:1033e800b4858800301880006a10b5008002780023
:1033f800448380001301c0000400cc00c485880009
:103408000000060030838800518388000000060011
:103418003486800045868000c582880096ed2600a7
:103428008502ea008500ca001201c1000000cc0034
:10343800d08288008500ca001241c1000000cc007b
:10344800e08288000000060016868000278680003b
:1034580094858000a58580001301c4001241c20034
:10346800630c21003300cc001301c1001201c50018
:103478001300cc0000000600000290000518800030
:103488001301c0000400cc001400980000000600de
:10349800041880008482d1000400240004824200c1
:1034a8007489880000000600a8898000b989800016
:1034b800110009000940d900f086880000000600c4
:020000040000fa
:020000040005f5
:045fe000deff0000e0
:020000040000fa
:020000040005f5
:045fe400ffff0000bb
:020000040000fa
:020000040005f5
:045fe8007fff000037
:020000040000fa
:020000040005f5
:045fec007dff000035
:020000040000fa
:020000040005f5
:045ff00038ff000076
:020000040000fa
:020000040005f5
:045ff400cfff0000db
:00000001FF
