:020000040000fa
:080000000002040000000000f2
:020000040000fa
:10000800cc020000cc020000cc020000cc020000b0
:10001800cc020000cc020000cc020000cc020000a0
:10002800cc020000ca0b0000cc020000cc02000089
:10003800cc020000740c0000cc0200005a0f000033
:10004800cc020000cc020000cc020000cc02000070
:10005800cc020000f4080000cc020000cc02000032
:10006800cc020000cc020000cc020000c80d000049
:10007800cc020000cc020000cc020000cc02000040
:10008800cc020000cc020000cc020000cc02000030
:10009800cc020000cc0200007a140000cc02000060
:1000a800cc020000cc020000cc020000cc02000010
:1000b800cc0200001e0d0000cc020000cc020000a3
:1000c800cc020000cc020000cc020000cc020000f0
:1000d800cc020000cc020000cc020000cc020000e0
:1000e800cc020000cc020000cc020000cc020000d0
:1000f800cc020000cc020000cc020000cc020000c0
:10010800cc020000cc020000cc020000cc020000af
:10011800cc020000cc020000cc020000cc0200009f
:10012800cc020000cc020000cc020000cc0200008f
:10013800cc020000cc020000cc020000cc0200007f
:10014800cc020000cc020000cc020000cc0200006f
:10015800cc020000cc020000cc020000cc0200005f
:10016800cc020000cc020000cc020000cc0200004f
:10017800cc020000cc020000cc020000cc0200003f
:10018800cc020000cc020000cc020000cc0200002f
:10019800cc020000cc020000cc020000cc0200001f
:1001a800cc020000cc020000cc020000cc0200000f
:1001b800cc020000cc020000cc020000cc020000ff
:1001c800cc020000cc020000cc020000cc020000ef
:1001d800cc020000cc020000cc020000cc020000df
:1001e800cc020000cc020000cc020000cc020000cf
:1001f800cc020000cc020000cc020000cc020000bf
:10020800cc020000cc020000cc020000cc020000ae
:10021800cc020000cc020000cc020000cc0200009e
:10022800cc020000cc020000cc020000cc0200008e
:10023800cc020000cc020000cc020000cc0200007e
:10024800cc020000cc020000cc020000cc0200006e
:10025800cc020000cc020000cc020000cc0200005e
:10026800cc020000cc020000cc020000cc0200004e
:0c027800cc020000cc020000cc02000010
:020000040000fa
:100400000f3021000eff28000e01880000000000c0
:1004100000012000200288000c0007000087210056
:10042000010020000f000700000020000000e00095
:100430000200320000000200000000000004020080
:10044000000000000040da000000fe000002200072
:100450000000e0000200320000202000900188002f
:1004600000000600a1028800800078000000eb0078
:100470001a003700e280400054a0b4009101ba0095
:10048000e280400054a0b4009102ba00e280400033
:1004900054a0b4000002eb00472bde00f507b200c9
:1004a000a6018800602ce10008003a000049eb003a
:1004b0000201e800020039003420ec0002f0a00044
:1004c0008301e900f9ff3e00040037006128e100e4
:1004d000010032000082eb00040007001101ba00a5
:1004e0000200e000e3ff3a000000060004d0a30091
:1004f000e20f49001c003900810278003549ba003a
:100500000201e800020039003420ec0002f0a000f3
:100510008301e9000f0032002549ba000201e8001a
:10052000020039003420ec0002f0a0008301e90051
:10053000080032000400e0000600320015c9ba00cd
:100540000201e800020039003420ec0002f0a000b3
:100550008301e9008180e80054a0b4000300e000ba
:10056000e2ff3a00000006009102ba000559780047
:100570008301e900f7ff3200c82ade000559780040
:100580008301e900f3ff32000400e000f1ff3200d4
:1005900011d9ba00eeff37000040da000000fe007b
:1005a0000000fa00001020003202b6000000e9004e
:1005b0004f00de000080fa00000006000000fa0094
:1005c00031e2a90023c8a90023e8a90003c8a900b3
:1005d00003e8a9000080fa00000006000000fa000d
:1005e00003c8a90003e8a900e7026000c82add00eb
:1005f000f48f2f007642800006026200050272002e
:1006000074428800800278000507b200c82add0025
:10061000f4ff2800764280000602620005027200a4
:1006200074428800e8026000c32ade00e1826200b2
:10063000ce2add00f4ff2b00164180000602620086
:1006400005027200144188000008b2004700de0075
:10065000610060004f00dd00f4ff270015418000bd
:100660000502620000027200144188000080fa0056
:10067000000006000000fa00901180006140600058
:100680000080fa00000006000000fa00c211880095
:1006900080118800911188000080fa000000060097
:1006a0000000fa008411800066026200e60f52002a
:1006b0000c003a00030037003322ab00feff3a0083
:1006c000a5118800b0027800e08f5200faff3a00ce
:1006d000070037003322ab00feff3a008502fb0023
:1006e000a5118800b0427800e0cf5200f9ff3a002f
:1006f0000080fa00000006000000fa00841180006b
:1007000066026200e60f520002003a00b01180005b
:1007100002003700b0118000f00fb2000080fa0034
:10072000000006000000fa008411800066026200ea
:10073000e60f520001003200f00fb200a011880055
:100740000080fa000000060000f0a7000000ea00a8
:1007500000f0a7000080ea00000006006022b80058
:10076000060220000000d0008180d2000482d20066
:100770008582d2000000a0000202520083825a004b
:10078000030031000202420083824a000000a100ff
:100790000603e900f3ff3a00000006000000fa003b
:1007a0000002780002003700015a78000201e900d7
:1007b000e00f5100fcff3a000080fa000000060044
:020000040000fa
:1007c00052540000444d0000002b00002452000051
:1007d000544400004d2300001b860000002b000045
:1007e000244f00004b2300004c080000002d0000a7
:1007f0002445000001230000d36a0000000000002f
:020000040000fa
:100800000000fa0044042000343a8800243a8000b2
:100810000460a1000470a100243a8800253a8000f9
:1008200004fe2f0004826200243a88003600200073
:1008300084072000a509200037742000844b78002d
:10084000854b7800864b7800160020006404200059
:100850007505200027742000844b7800854b7800b4
:10086000864b780000000000153a80000400270045
:100870008482620004002300848f5200faff3a0051
:1008800000000000153a800004022000048262008b
:10089000e00f5200fbff320000102100fd090700ad
:1008a000a90a070056030700a10b07000002eb008e
:1008b000648388006c50a800190037007a03070091
:1008c000157380000408200004826200e00f5200cb
:1008d00007003200157380000404200004826200c7
:1008e000e00f5200020032006d70a80002003700d5
:1008f0006d70a9000000000015738000040820003e
:1009000004826200e00f520005003200157380007f
:100910000404200004826200e00f5200f6ff3a0057
:10092000157380000408200004826200e00f52006a
:100930000500320015738000040420000482620068
:10094000e00f5200ddff3a006cf0a9006c10a80027
:100950000002eb00c489880021a8a9004202070018
:1009600000427800e04f5200040032006c30a900d1
:10097000040078000080fa00000006006022b80041
:1009800074838800858388006022b80014848800fe
:10099000258488006022b800b4848800c58488005b
:1009a00001a8a90021a8a800648380006202620057
:1009b000e00f520046003a003800370015738000ff
:1009c0000404200004826200e00f520033003a0069
:1009d00035030700157380000404200004826200c0
:1009e000e00f520007003a006583800004022000f7
:1009f00004826200e00f520028003a006cb0a800a8
:100a00002600370065838000040220000482620013
:100a1000e00f5200210032006cb0a9006583800015
:100a2000040820000482620004f0a7000402ea0027
:100a30000402e9004f22de00044278000482fb0039
:100a4000610262004722dd0066838000f5f72f0017
:100a500085026300048272006483880065838000dd
:100a6000042020000482620004f0a7000402ea00cf
:100a70000402e9004f22de00044278000482fb00f9
:100a8000610262004922dd0066838000f5df2f00ed
:100a900085026300048272006483880015738000fd
:100aa0000408200004826200e00f5200c3ff3a00f5
:100ab000000000001573800004082000048262001a
:100ac000e00f5200fbff3200e70107006c30a80086
:100ad0006cd0a800147080004822de0061426200e1
:100ae0008482fb00947280000442780061426200bc
:100af0000482fb00040242000403780014718000a9
:100b00004622de00614262000482fb0004024300d0
:100b10000402420004824200a4868800a486800069
:100b2000b4868800d10507000700370000000000e8
:100b3000050037000000000003003700000000003f
:100b40000100370000000000d5898000f418200063
:100b5000848f5200f5ff36006483800062026200d9
:100b6000e00f520001003a00430037001573800087
:100b70000408200004826200e00f520015003a00d1
:100b8000c902070015738000040820000482620077
:100b9000e00f520006003a00648380007002620099
:100ba000e00f52000b003a006c90a80009003700db
:100bb0006483800070026200e00f52000500320082
:100bc0006c90a9006c30a9000002eb00c489880079
:100bd000290037001573800004042000048262009d
:100be000e00f5200d3ff3a00af02070015738000f8
:100bf0000404200004826200e00f520007003a0063
:100c0000658380000402200004826200e00f52002d
:100c1000caff3a006cb0a800cbff370065838000a4
:100c20000402200004826200e00f5200c5ff32007f
:100c30006cb0a9006583800004202000048262005b
:100c400004f0a7000402ea000402e9004f22de00db
:100c5000044278000482fb00610262004922dd0048
:100c600066838000f5df2f00850263000482720036
:100c700064838800b4ff370033ff37000000fa00b8
:100c8000000d21008a0b07009586800004e82300f0
:100c900004824200f4878800f4878000e00f52004d
:100ca00002003d000002eb00f487880065838000ad
:100cb0000420200004826200e00f52000300320092
:100cc000f48780000402ea00f4878800f58780003a
:100cd00024002000110009008402d80000027800de
:100ce00054858800658380000480200004826200af
:100cf000e00f52000300320074d121007485880097
:100d00001e0037006483800064026200e00f52001e
:100d10000300320054858000748588001700370076
:100d2000948a8000f30f520014003600558580002d
:100d3000445c2f00848f52000600350055858000ea
:100d4000c4a32000848f520002003c000002eb008c
:100d500054858800f486800034858800548580009e
:100d60002485880060092100f40a0700448580007a
:100d7000748588000002eb00948a88000002eb0072
:100d800064858800f4858000f48388006485800091
:100d9000e4838800e0062100e80a0700048480005c
:100da00014868800158680001486800085007800ef
:100db00004007800c107070000027800148a880048
:100dc000148a8000d57a260004825200040078003c
:100dd000c9070700000278006484880064848000ea
:100de0000402ea00748488000486800094848800e9
:100df000748580008484880020082100cf0a0700c1
:100e0000a4848000248688000080fa000000060088
:100e10000200fa00000f78004400f80044e0a80047
:100e200044c0a8004480a800220707004407070028
:100e30001e027800540a90000400780042fe070069
:100e4000000278009e027800f50a9000850f52009b
:100e500002003d00490707000e0037001e0278001f
:100e6000540a9000e00f5200050034001e02780082
:100e7000e40a90001e027800350298000500370051
:100e80001e027800640a90008402ea001e027800c4
:100e9000350298001e0278001412900004007800b9
:100ea00029fe0700000278009e027800f50a9000f3
:100eb000850f520002003d00390707000e00370081
:100ec0001e02780014129000e00f5200050034005a
:100ed0001e027800e40a90001e027800250a98009d
:100ee000050037001e027800640a90008402ea00c0
:100ef0001e027800250a9800320707001e027800bb
:100f0000940a90001e027800240290000402ea0075
:100f100085007800040078002a0a070000027800a3
:100f20009e027800e41298001e027800e4129000fd
:100f3000e489800084825200f489800004824200a7
:100f4000f48988001e02780064129000e489880009
:100f5000048a80000402e800048a8800048a800071
:100f6000f40f520007003a00f58980001e02780055
:100f7000751298000002eb00048a88000002eb0062
:100f8000f4898800c48980000402e800c4898800cc
:100f9000c4898000e50f520002003a000002eb0015
:100fa000c4898800380707001e027800041a9000e0
:100fb000b1412100040078004007070000027800da
:100fc0009e027800b41298001e027800b4129000bd
:100fd0001e027800251298001e027800241290004c
:100fe000e00f52000a003d001e027800241290001b
:100ff0008402ea001e027800251298001e02780082
:10100000341290008402ea001e0278003512980023
:101010001e027800a412900064152000848f5200f4
:1010200006003c001e02780075152000251298006d
:101030001e02780075152000351298001e027800f7
:1010400005002400551298001e027800e41290005a
:101050001e02780054129000848242001e02780022
:10106000651298004400f9000080fa0000000600b4
:101070000000fa00d4858000c4888800e4858000e0
:1010800004898800348680000488880044868000b3
:1010900074888800001021005dff070064838000d1
:1010a00061026200e00f520036003200858280004b
:1010b000b4898000848f520006003600b489800015
:1010c0000402e800b4898800b4aa2a008485880054
:1010d0001500370094828000a58280000403be00c2
:1010e00094898000a5898000840f5300858f5b0060
:1010f0000700360094898000a58980007407b0003d
:101100000580b00094898800a58988000600370012
:101110006cd0a8006c10a9008585800064898000cf
:1011200004825200448a88006583800004202000e5
:1011300004826200e00f52000900320086858000c0
:1011400094898000a5898000402ade0005002000e7
:1011500004027800040253008485880020003700d0
:101160008685800094898000a5898000402ade0061
:1011700005002000040278000402430084858800f2
:101180001700370065898000448a8000048242008d
:1011900084858800448a8000040078006afd070086
:1011a00000027800e90f52000d003400c48980006d
:1011b000e00f52000a003a00448a8000e00f52001b
:1011c00004003d00448a800069024200448a88008d
:1011d00003003700448a800069025200448a880074
:1011e0000080fa00000006003600f800809fbe0074
:1011f000829fbe00849fbe00869fbe000000fa0052
:1012000001a8a900948a80000402e800948a88005a
:10121000d48980000402e800d489880064838000b7
:1012200062026200e00f520008003200f409070079
:10123000ce020700de09070090fe070098090700ac
:101240000f0a0700000a0700a30807000080fa0041
:101250004f03be004f02be004f01be004f00be0054
:101260003600f900004006000000fa000002eb0022
:101270005487880044e0a80064a02300d50620001d
:1012800094828800a58288000082eb008482880016
:1012900084eb23008486880044062100f5ff2700a4
:1012a000050a780044062100f5ff27002502980072
:1012b00064052100c5da2000050a780004c0280072
:1012c0002454880004c028006454880004c0280006
:1012d000a454880014012800e4548800f408200075
:1012e00014548800f400200014558800c4da20004b
:1012f00044618800c4da200044628800c4da200017
:101300004463880094b521002460880044202000b4
:1013100004618800442020000462880044202000ea
:101320000463880004002c001461880004002c0071
:101330001462880004002c00146388000002eb0093
:10134000546188000002eb00546288000002eb0048
:1013500054638800c408200064618800c408200029
:1013600064628800c40820006463880034002000a0
:1013700024618800340020002462880034002000aa
:10138000246388000002eb001460880074042000cd
:1013900034618800740420003462880074042000e2
:1013a00034638800744380000480a1000490a1008d
:1013b00004a0a000744388007443800004c0a1000e
:1013c00004d0a10004e0a00074438800844380009e
:1013d0000400a1000410a1000420a00084438800a0
:1013e0000bc8a9002bc8a9000400280004608800cd
:1013f0000002eb0034608800041980000480a00023
:101400000490a00004198800041980000450a00072
:101410000460a0000470a100041988002083a900c2
:101420002063a8002043a8000002eb0014198800e4
:10143000141980000480a1000490a00014198800f1
:101440000002eb002419880064c0b3000440780057
:1014500024e3b7000002eb0044198800451980001e
:1014600004fe2f0004826200d400b30044198800f7
:101470002603a8000002eb008419880021e3a800dd
:101480008900070034188000840278002418800046
:101490008500780004007800680907000028a9008a
:1014a0002028a900044280000440a1000450a100ab
:1014b0000460a0000442880014c02100040a8800cf
:1014c000040a800004a0a00004b0a10004c0a10090
:1014d000040a8800040a80000400a0000410a1008f
:1014e0000420a100040a88000002eb00140a88000e
:1014f0002028a90000a8a90020a8a9001442800063
:101500000440a1000450a1000460a000144288001f
:10151000440a800004a0a00004b0a10004c0a100ff
:10152000440a8800440a80000400a0000410a100be
:101530000420a100440a88000002eb00540a88003d
:1015400020a8a90004a8a90024a8a900944280000a
:101550000440a1000450a1000460a000944288004f
:10156000840a800004a0a00004b0a10004c0a1006f
:10157000840a8800840a80000400a0000410a100ee
:101580000420a100840a88000002eb00940a88006d
:1015900024a8a90011e1a9001021a90010c1a900e7
:1015a000840880000440a0000450a0008408880043
:1015b0000002eb00340888000082eb006408880019
:1015c0001442800004c0a10004d0a00004e0a100e7
:1015d0001442880000e8a90020e8a80011e1a80052
:1015e000090ea80028cea800580ea8002268a8005e
:1015f0000042eb00044078000080fa000000060082
:101600000000fa006466200094838800240420000f
:10161000a4838800d4cc2000b4838800f4ff270082
:10162000c4838800c48380000402ea00d483880055
:10163000e0062100bf0807006466200034848800ab
:101640002404200044848800d4cc200054848800e2
:10165000f4ff270064848800648480000402ea00a8
:101660007484880020082100b20807006466200006
:10167000d484880024042000e4848800f4ff270038
:10168000f4848800243327000485880004858000c2
:101690000402ea001485880060092100a5080700fb
:1016a0000080fa00000006000400fa006022b80082
:1016b000048fbe0004003700140020000500200045
:1016c0001e0f42005e974a00f469280015002000b2
:1016d0001e03be00840f5300858f5b00f6ff3400ad
:1016e0000080fa00000006000400fa0010079800cd
:1016f000358a8000248a8000848f52000f003400d5
:10170000258a8000368a8000248a800004025300e3
:101710008500780004007800710507000002780059
:101720009e00900004007800640507000002780025
:101730009e029000050f420012003700258a8000ab
:10174000348a8000848f52000c003400258a800087
:10175000348a800085007800040078006005070066
:10176000000278009e0090000400780053050700f6
:1017700000027800040f7800020037001e0290007b
:10178000040f78001e027800040078000080fa0040
:10179000000006003600f800809fbe00829fbe0059
:1017a000849fbe00869fbe000000fa002571800065
:1017b000044020000482620004f0a7000402ea0052
:1017c0000402e9004f22de00044278000482fb009c
:1017d000610262004a22dd0026718000f5bf2f0001
:1017e0008502630004827200247188000042eb00cd
:1017f00004407800d8f0b7000002eb00a48688000f
:10180000147080004822de00614262008482fb0086
:101810009472800004427800614262000482fb00fe
:101820000402420004037800147180004622de00a6
:10183000614262000482fb00040243000402420091
:1018400004824200a4868800240a8000448788001d
:10185000b201070034088000d48688000002eb0043
:1018600034088800e48680000402e800e4868800ea
:10187000d4868000648a8800648a8000658a80003b
:10188000548a8000848f520006003500840d2100a8
:1018900014427800e04f520002003a00900807001e
:1018a00009003700658a8000548a8000848f5200c6
:1018b00003003d00f4ff2700f48688000200370093
:1018c0000002eb00f48688000028a9000080fa00de
:1018d0004f03be004f02be004f01be004f00be00ce
:1018e0003600f900004006003600f800809fbe0078
:1018f000829fbe00849fbe00869fbe000000fa004b
:1019000025718000044020000482620004f0a700da
:101910000402ea000402e9004f22de0004427800db
:101920000482fb00610262004a22dd002671800011
:10193000f5bf2f00850263000482720024718800c5
:101940000042eb0004407800d8f0b7000002eb0042
:10195000a4868800147080004822de006142620084
:101960008482fb009472800004427800614262002d
:101970000482fb000402420004037800147180001a
:101980004622de00614262000482fb000402430042
:101990000402420004824200a4868800640a800097
:1019a000448788005d01070034088000d4868800e1
:1019b0000002eb0034088800e48680000402e8009e
:1019c000e4868800d4868000648a8800648a800067
:1019d000658a8000548a8000848f5200060035009a
:1019e000840d210014427800e04f520002003a00ba
:1019f0003b08070009003700658a8000548a800090
:101a0000848f520003003d00f4ff2700f486880015
:101a1000020037000002eb00f486880000a8a9004d
:101a20000080fa004f03be004f02be004f01be000f
:101a30004f00be003600f900004006003600f800f6
:101a4000809fbe00829fbe00849fbe00869fbe0016
:101a50000000fa002571800004402000048262002a
:101a600004f0a7000402ea000402e9004f22de00ad
:101a7000044278000482fb00610262004a22dd0019
:101a800026718000f5bf2f0085026300048272007a
:101a9000247188000042eb0004407800d8f0b700c1
:101aa0000002eb00a4868800147080004822de004b
:101ab000614262008482fb009472800004427800dc
:101ac000614262000482fb000402420004037800c9
:101ad000147180004622de00614262000482fb0035
:101ae000040243000402420004824200a4868800eb
:101af000a40a800044878800080107003408800099
:101b0000d48688000002eb0034088800e486800058
:101b10000402e800e4868800d4868000648a880095
:101b2000648a8000658a8000548a8000848f520015
:101b300006003500840d210014427800e04f520069
:101b400002003a00e607070009003700658a8000b6
:101b5000548a8000848f520003003d00f4ff270068
:101b6000f4868800020037000002eb00f48688004b
:101b700004a8a9000080fa004f03be004f02be0077
:101b80004f01be004f00be003600f90000400600c5
:101b90003600f800809fbe00829fbe00849fbe007a
:101ba000869fbe000000fa000268a90065838000dd
:101bb0000480200004826200e00f52002200320004
:101bc0000002eb00a4868800147080004822de002a
:101bd000614262008482fb009472800004427800bb
:101be000614262000482fb000402420004037800a8
:101bf000147180004622de00614262000482fb0014
:101c0000040243000402420004824200a4868800c9
:101c1000a48680008585800004034200c40e210054
:101c200004024300050a7800a48a80000402e80048
:101c3000a48a8800a48a8000e50f52004300360081
:101c40006d70a900410037000002eb005487880046
:101c50000002eb00a4868800147080004822de0099
:101c6000614262008482fb0094728000044278002a
:101c7000614262000482fb00040242000403780017
:101c8000147180004622de00614262000482fb0083
:101c9000040243000402420004824200a486880039
:101ca0000042eb0004407800d8f0b700a40a80009e
:101cb000448788009900070034088000d486880093
:101cc0000002eb0034088800e48680000402e8008b
:101cd000e4868800d4868000648a8800648a800054
:101ce000658a8000548a8000848f52000600350087
:101cf000840d210014427800e04f520002003a00a7
:101d00007707070009003700658a8000548a800041
:101d1000848f520003003d00f4ff2700f486880002
:101d2000020037000002eb00f48688006583800023
:101d30000440200004826200e00f520003003a00d9
:101d4000f48680000402ea00f48688000268a90094
:101d50000080fa004f03be004f02be004f01be00dc
:101d60004f00be003600f900004006000000fa00f7
:101d7000658380000480200004826200e00f52002e
:101d80000e00320085828000b4898000848f52006a
:101d900006003600b48980000402e800b489880097
:101da0000002eb00848588004000370084858000b5
:101db0006f024200848588003c003700f486800072
:101dc0008402780005f0a7008502ea00d4cc200048
:101dd000848f520003003c000002eb00148788004f
:101de0000e003700768a8000878a8000648a80002f
:101df000cfa2de000401be000600be0057fa0700b5
:101e00000002be0024878800358788002487800070
:101e1000358780000402780014878800658380007d
:101e20000440200004826200e00f520010003200e3
:101e30008485800084027800148780000482420038
:101e40008485880085858000048780008482520014
:101e5000a4aa2200848f5200140034000587800059
:101e6000a4aa220004824200848588000f00370063
:101e700084858000840278001487800004825200e8
:101e800084858800058780008485800084825200d4
:101e9000a4aa2200848f5200040034000587800029
:101ea00064552d0004824200848588000080fa0079
:101eb00000000600801f7800849fbe000000fa002a
:101ec00000e8a900850d21009542780014c0b300f8
:101ed000e1cf520001003e000042eb008542e800e5
:101ee00005407800d8f0b700e04f520007003200fc
:101ef000f4ff2700d48688000002eb00f4868800f7
:101f000024c0b30004407800d8f0b7000080fa0085
:101f10004f02be004f007800004006000000fa00ab
:101f2000a48680006123b8000082eb008082eb0071
:101f30000602420087824a00560020000700200067
:101f4000860f5200878f5a00c1003e000406010030
:101f50002400370061003700410037009d00370042
:101f6000010037007c003700b4868000e40f520087
:101f700004003a00b4aa2e00048788006d50a9001e
:101f8000b4003700b4868000e10f520004003a002c
:101f900004002c00048788006d50a800ad003700b5
:101fa00025718000044020000482620004f0a70034
:101fb0000402ea000402e9004f22de000442780035
:101fc0000482fb00610262004a22dd00267180006b
:101fd000f5bf2f008502630004827200247188001f
:101fe0009c003700b4868000e50f520004003a00e0
:101ff00004002c00048788006d50a900950037006c
:10200000b4868000e30f520004003a0054552900c2
:10201000048788006d50a8008e003700257180006d
:10202000044020000482620004f0a7000402ea00d9
:102030000402e9004f22de00044278000482fb0023
:10204000610262004a22dd0026718000f5bf2f0088
:102050008502630004827200247188007d003700cd
:10206000b4868000e10f520004003a005455290064
:10207000048788006d50a90076003700b486800080
:10208000e20f520004003a00b4aa26000487880038
:102090006d50a8006f0037002571800004402000bb
:1020a0000482620004f0a7000402ea000402e900ce
:1020b0004f22de00044278000482fb0061026200cd
:1020c0004a22dd0026718000f5bf2f0085026300e3
:1020d00004827200247188005e003700b48680009c
:1020e000e30f520004003a00b4aa260004878800d7
:1020f0006d50a90057003700b4868000e60f5200eb
:1021000004003a0004002400048788006d50a800f1
:1021100050003700257180000440200004826200d6
:1021200004f0a7000402ea000402e9004f22de00e6
:10213000044278000482fb00610262004a22dd0052
:1021400026718000f5bf2f008502630004827200b3
:10215000247188003f003700b4868000e20f5200ef
:1021600004003a0004002400048788006d50a90090
:1021700038003700b4868000e40f520004003a00b3
:1021800054552100048788006d50a80031003700a5
:1021900025718000044020000482620004f0a70042
:1021a0000402ea000402e9004f22de000442780043
:1021b0000482fb00610262004a22dd002671800079
:1021c000f5bf2f008502630004827200247188002d
:1021d00020003700b4868000e60f520004003a0069
:1021e00054552100048788006d50a900190037005c
:1021f000b4868000e50f520004003a00b4aa2e0015
:10220000048788006d50a8001200370025718000f7
:10221000044020000482620004f0a7000402ea00e7
:102220000402e9004f22de00044278000482fb0031
:10223000610262004a22dd0026718000f5bf2f0096
:102240008502630004827200247188000100370057
:1022500000000000a4868000b48688000487800007
:10226000848588000080fa00000006000000fa0063
:10227000a48680006123b8000082eb008082eb001e
:102280000602420087824a00560020000700200014
:10229000860f5200878f5a0019003e000406010085
:1022a000080037000d003700090037001100370023
:1022b000010037000c00370054552d0004878800ba
:1022c00010003700b4aa2a00048788000d003700e8
:1022d00004002800048788000a00370054552500b0
:1022e0000487880007003700b4aa2200048788000a
:1022f000040037000002eb0004878800010037006b
:102300000000000004878000848588000080fa00b7
:10231000000006000000fa00a8f8070090f22f0065
:10232000aef8070004402c00148c8800d4752900f6
:10233000248c8800258c8000148c8000a20420004e
:102340008500780004007800cff807008011a9000c
:102350008011a900b48d8000d48d8800b48d8000d8
:10236000b48b8800b48d8000c48b88000002eb0021
:10237000040078000080fa00000006000200fa0065
:102380000002eb00040f78008cf807001e027800b2
:10239000040078000080fa00000006002000fa0027
:1023a000048c800061026200e00f520002003a00db
:1023b0000082eb004c013700c48b8000840278005f
:1023c000b48b8000048252008402e800b48b800049
:1023d0000081eb0085007800040078007c01070094
:1023e00000027800d48b8800d48b80004822de0065
:1023f000e48b8800d58b8000f40f200004826200fb
:10240000f48b8800c48b80000482e80014427800ba
:102410000482fb0054079800c48b80000402e8008b
:10242000144278000482fb0064079800b48b80009b
:102430000482e800b48b8800e48b8000de02900008
:10244000848f52001c013a00f48b8000ee02900051
:10245000848f520018013a00b48d80000402e80015
:10246000144278000482fb006123b90044fb2f0072
:10247000f5ff2f000602420087824a007602200004
:1024800007002000860f5200878f5a0001013e008e
:1024900004060100cb00370093003700fd00370031
:1024a000fc003700fb003700fa003700f900370066
:1024b000f8003700f7003700f6003700f500370066
:1024c000f4003700f3003700f2003700f100370066
:1024d000f0003700ef003700ee003700ed00370066
:1024e000ec003700eb003700ea003700e900370066
:1024f000e8003700e7003700e6003700e500370066
:10250000e4003700e3003700e2003700e100370065
:10251000e0003700df00370006003700dd0037003d
:10252000dc003700db003700da003700d900370065
:102530009b003700b48b800074079800b48b800038
:1025400064024200b48b88007e0290001402be0038
:102550000402780014079800b48b8000940278007d
:1025600035079800b48b80000482e800b48b8800a3
:102570000082eb00d48b8800b4c2b30004579800eb
:1025800044c2b300145798000042eb00245798004f
:10259000d58b8000700247000501780021002000e3
:1025a000040078000a01070000027800d48b88003c
:1025b000d48b800004017800be0090001e009000c3
:1025c0000301070000027800d48b880070024700e6
:1025d0000400780032f8070000000000f0f7070060
:1025e00000427800e04f5200fcff3a000d00370037
:1025f0001e029000144278000482fb009e029000ac
:102600008502e800150798000400780045f80700e7
:1026100000000000e2f7070000427800e04f52009f
:10262000fcff3a003e02900004f0a7000402ea001a
:102630000402ea004f22de0004427800be0290004d
:102640008502e90035079800e04f5200e8ff3a00a4
:1026500034c2b30004579800d58b80007002470045
:10266000050178001100200004007800d800070060
:1026700000027800d48b8800d48b8000044278005c
:1026800014579800d48b80004822de000442780062
:10269000245798000002eb00440798000e00370012
:1026a0004e029000700242006e427a000482fb00eb
:1026b000040078001bf8070000000000b8f70700ce
:1026c00000427800e04f5200fcff3a004e029000ba
:1026d0000402e800440798004e029000e20f520006
:1026e000efff360074003700b48b80007407980049
:1026f000b48b800064024200b48b88007e0290009c
:102700001402be000402780024079800b48b8000f5
:102710009402780035079800b48b80000482e800aa
:10272000b48b8800b48b8000040f78000800370059
:102730001e02780014427800ae029000844a7800ad
:102740002e0290000402e800240798001e0fe80003
:102750003e02900004f0a7000402ea000402ea002e
:102760004f22de0004427800be0290008502e9009c
:1027700035079800e04f5200edff3a00f43e280084
:1027800004007800c6f707000000000084f7070087
:1027900000427800e04f5200fcff3a00460037004c
:1027a000543e280004007800bdf707000000000038
:1027b0007bf7070000427800e04f5200fcff3a0030
:1027c0003d0037000082eb00d48b8800b4c2b30018
:1027d0000457980044c2b3001457980004c2b300d1
:1027e000245798000042eb00345798000042eb0059
:1027f0004457980004c1b3005457980034c2b30042
:1028000064579800d58b800070024700050178005e
:1028100071002000040078006d00070000027800bd
:10282000d48b8800d48b80000442780074579800c1
:10283000d48b80004822de0004427800045f9800b8
:102840000002eb00440798000e0037004e02900093
:10285000700242006e427a000482fb00040078009d
:10286000b0f70700000000004df7070000427800b5
:10287000e04f5200fcff3a004e0290000402e800d4
:10288000440798004e029000e80f5200efff360018
:1028900009003700743f28000400780080f7070023
:1028a000000000003ef7070000427800e04f5200b1
:1028b000fcff3a0000000000020220008000eb0054
:1028c00060152100b5f707008011a900b48d8000c4
:1028d000d48d8800b48d8000b48b8800b48d8000c6
:1028e000c48b88000002eb00040078000080fa002e
:1028f000000006003600f800809fbe00829fbe00e8
:10290000849fbe00869fbe00881f78000000fa00ea
:1029100003c8a90007003700d88d800076f70700ac
:102920000002780004427800044c78000802e800b5
:10293000d48d88004ff7070000427800e04f520026
:10294000f5ff3a00d48d800063025200c48b8800ea
:10295000c48d80008402e900d48d8000848f5200f1
:1029600005003100b48d8000d48d8800c48d8000b6
:102970000402e900c48b8800b48b80009442780084
:1029800044c2b30084cf520007003a00c48b8000d9
:102990009442780034c2b30084cf520004003a005d
:1029a0008011a80002003700b48d8000d48d88000b
:1029b0000080fa004f0478004f03be004f02be00b3
:1029c0004f01be004f00be003600f9000040060077
:1029d0001000fa00500798006107980072079800ed
:1029e00014002a003407980084002000440798004f
:1029f0000002eb0014079800260037003e8c880088
:102a00005e029000144278000482fb0024079800c4
:102a10005e0290000402e800540798000002eb00f8
:102a2000040f780014003700fe0290002e02900080
:102a300004826a006102620004427800e04f5200a2
:102a4000060032007e0290008402d1003e02900017
:102a500004826a0074079800030037007e02900029
:102a60000402d100740798002e0290000402d100e5
:102a7000240798001e0fe8004e0290009e02780086
:102a8000848f5200e8ff39001e0290000402e80023
:102a9000140798009e0290006e029000848f5200ee
:102aa000d6ff39007e029000040078000080fa0012
:102ab0000000060044888000058880001301c000e3
:102ac000158880001381c0000090cb000000cb006f
:102ad000358880001381c0000090cb000000cb003f
:102ae00064888000558880001381c0000000cb00fe
:102af0000000cd00508888004488800075888000e0
:102b00001301c000858880001381c0000090cb00b5
:102b10000000cb00a58880001381c0000090cb008e
:102b20000000cb0064888000b58880001381c0005d
:102b30000000cb000000cd00b08888000000060037
:102b400050888000c18880000000ca000180ca004f
:102b50000030cb000000cd00d0888800b088800015
:102b6000018980000000ca000180ca000030cb004b
:102b70000000cd001089880000000600e488800075
:102b8000d5888000f78880001301c0000000cd00c8
:102b9000110009000700d9003088880000000600f5
:102ba000e488800015898000f78880001301c00048
:102bb0000000cd00110009000700d900a08888009e
:102bc00000000600108880000000ca0034888000e1
:102bd000258980001381c0000000cb00148880008c
:102be0001381c0000090cb000000cb000000cd009e
:102bf00010888800808880000000ca00a4888000b7
:102c0000258980001381c0000000cb0084888000eb
:102c10001381c0000090cb000000cb000000cd006d
:102c200080888800208880000000ca001488800006
:102c3000358980001381c0000000cb00248880000b
:102c40001381c0000090cb000000cb000000cd003d
:102c500020888800908880000000ca008488800056
:102c6000358980001381c0000000cb00948880006b
:102c70001381c0000090cb000000cb000000cd000d
:102c80009088880000000600808980007489800098
:102c9000458980000000ca001381c0000000cb00fd
:102ca000848980001381c0000090cb000000cb001d
:102cb0000000cd008089880000000600841f780095
:102cc000851f780000027800810278001301c0009f
:102cd0000000cd00cf0278004f027800000006000f
:102ce000821f780001017800110009000200d9005c
:102cf0004f01780000000600800378000000eb0020
:102d00001700e600000000000000000000000000c6
:102d1000889fbe008781cf00e28051000139dd002d
:102d2000000028008002510005027800c12add0061
:102d30000600240006a3b90005a4b90000002f0076
:102d40000981b900060341008783490005ccb90019
:102d5000008020000981b9000603410087834900f3
:102d600005ccb90000b02f000981b900060341006d
:102d70008783490005ccb900003820000981b900db
:102d8000060341008783490005ccb90000d62f0017
:102d90000981b900060341008783490005ccb900c9
:102da000002120000981b900060341008783490002
:102db00005ccb90030e52f000981b90006034100b8
:102dc000878349004f33de004138dd000003730084
:102dd000cfbbde000000280006034000e0834b006c
:102de0004109de00700011000233de000038dd0012
:102df0000003730082bbde000100a3000500390060
:102e000024a8250004b0b9004f00de00c108dd0091
:102e100001037000060078004f04be0000000600a9
:102e20000200fa00000f78004400f80044e0a80017
:102e300044c0a8004480a8001eff070040ff070010
:102e40001e027800540a9000040078003ef6070045
:102e5000000278009e027800f50a9000850f52006b
:102e600002003d0045ff07000e0037001e027800fb
:102e7000540a9000e00f5200050034001e02780052
:102e8000e40a90001e027800350298000500370021
:102e90001e027800640a90008402ea001e02780094
:102ea000350298001e027800141290000400780089
:102eb00025f60700000278009e027800f50a9000cf
:102ec000850f520002003d0035ff07000e0037005d
:102ed0001e02780014129000e00f5200050034002a
:102ee0001e027800e40a90001e027800250a98006d
:102ef000050037001e027800640a90008402ea0090
:102f00001e027800250a98002eff07001e02780096
:102f1000940a90001e027800240290000402ea0045
:102f2000850078000400780026020700000278007f
:102f30009e027800e41298001e027800e4129000cd
:102f4000e489800084825200f48980000482420077
:102f5000f48988001e02780064129000e4898800d9
:102f6000048a80000402e800048a8800048a800041
:102f7000f40f520007003a00f58980001e02780025
:102f8000751298000002eb00048a88000002eb0032
:102f9000f48988003cff07001e027800041a9000a4
:102fa000b14121000400780044ff070000027800ce
:102fb0009e027800b41298001e027800b4129000ad
:102fc0001e027800251298001e027800241290003c
:102fd000e00f52000a003d001e027800241290000b
:102fe0008402ea001e027800251298001e02780072
:102ff000341290008402ea001e0278003512980014
:103000001e027800a412900064152000848f5200e4
:1030100006003c001e02780075152000251298005d
:103020001e02780075152000351298001e027800e7
:1030300005002400551298006583800004202000bc
:1030400004826200e00f5200080032001e02780085
:10305000e41290001e027800541290008482520004
:103060001e02780065129800070037001e027800e3
:10307000e41290001e0278005412900084824200f4
:103080001e027800651298004400f9000080fa00e2
:10309000000006000200fa00000f78001e0278000f
:1030a00085c22700650298001e027800f5ff270000
:1030b000450298001e02780075eb2700650a98000b
:1030c0001e02780035332100750a98001e02780030
:1030d00075152000451298000080fa0000000600d7
:020000040000fa
:1030e0000012000000010000820000000000480003
:1030f000068c0c00c812f900181a1f0028251f00a2
:103100002bfc3000ba3656003cce41001d47400033
:103110004c335100f55582005ad75e00f262cf0061
:10312000666d6a00ca6de20070b573004176840076
:10313000787d7a00297c8a007d9d7e00627fd800a0
:103140007fff7f00d87f62007f9d7e008a7d2900ff
:103150007c7d7a008478410076b57300e270ca0005
:103160006d6d6a00cf66f20062d75e00825af5008c
:1031700055335100404c1d0047ce4100563cba002b
:1031800036fc30001f2b2800251a1f00f918c80034
:10319000128c0c004806000000b8f90074f33800e7
:1031a000ed07e700e6e0d800dae1d40004cf4600fe
:1031b000c9aac30032bee300b8c0b300cdae0b0055
:1031c000aa7ea50029a10e009d3199009395360095
:1031d000921e8f004b8cbf00897c87008385d700af
:1031e0008376820063819e00802880000180280011
:1031f000809e80006381760082d7830083857c0077
:1032000087bf89004b8c1e008f369200939531004a
:10321000990e9d0029a17e00a50baa00cdaec0008d
:10322000b3e3b80032beaa00c346c90004cfe10030
:10323000d4d8da00e6e00700e738ed0074f3b80010
:10324000f900000050100000ac00000080000000f9
:10325000fc1000005a000000820000000000000086
:10326000000000000000000000000000000000005e
:10327000000000000000000000000000000000004e
:10328000000000000000000000000000000000003e
:10329000000000000000000000000000000000002e
:1032a000000000000000000000000000000000001e
:1032b000000000000000000000000000000000000e
:1032c000000000005b003000755547000200000060
:1032d00000000000c4110000200000008200000077
:1032e0000020e40012fb090011058b0002460100da
:1032f000a30051000029000014000a00000500008e
:10330000030001000001000000000000881100001f
:103310002e00000080000000561100003200000066
:1033200080000000b61100000e00000082000000c6
:1033300056117500115611002d2445000023000080
:08334000000000000000000085
:020000040000fa
:103348000000fa000002eb002470880034f9210024
:10335800047088000002eb00747088000e2ea8002c
:103368000e0ea8000002eb00a4708800f43f2000b5
:10337800847088000002eb00f47088001e0ea8001c
:103388001e2ea8001e4ea8001e6ea8000002eb000c
:1033980024718800f4ff2b00047188000002eb0000
:1033a800747188002e4ea8002e2ea8002e0ea8009c
:1033b800214ea9000002eb00a47188000416200029
:1033c8008471880030cea90030aea9000002eb005d
:1033d8002472880004002f00047288000002eb00a9
:1033e800747288004faea8000002eb00a472880037
:1033f8003417200084728800502ea9000002eb00c8
:1034080024738800043c200004738800153a800067
:10341800f4fb2f000483620064042000750520007b
:1034280027742000844b7800854b7800864b780001
:103438003536800004f82f0084826200540320008f
:10344800048272003436880075348000f40f2c0032
:103458008482620004302000048272007434880080
:103468007535800004f82f00048262008401b300df
:103478007435880075358000f40f28008482620056
:10348800046023000482720074358800853580004a
:1034980004f82f008482620004062000048272006f
:1034a80084358800153a80000404200004837200e3
:1034b800640420007505200027742000844b7800e0
:1034c800854b7800864b78000080fa0000000600e3
:1034d800c4828000d5828000e68280000400e0007b
:1034e800190035000500e000070035008501780067
:1034f8000401780045000700f482880005838800ed
:1035080016838800280037000600e0000700350011
:1035180084017800060178003c000700f6828800e4
:1035280004838800158388001f0037008501ea009e
:103538000601ea0035000700f58288000483880048
:1035480016838800180037000500e00010003500d9
:103558000600e000070035008601780005017800c4
:103568002a000700f58288000683880014838800f3
:103578000d0037008601ea000401ea002300070075
:10358800f4828800068388001583880006003700c7
:103598008401ea000501ea001c000700f6828800a1
:1035a8000583880014838800f482800065618000a8
:1035b8008582d10015a0e600020037003561880039
:1035c8000100370034618800048380006562800050
:1035d8008582d10015a0e600020037003562880018
:1035e800010037003462880014838000656380001e
:1035f8008582d10015a0e6000200370035638800f7
:103608000100370034638800000006005610d4001b
:103618000282b800050178000382b80085017800ad
:103628005690bf0082005000838050008180d100f6
:103638000103780082804000810278008380400086
:1036480001027800000006000200fa00881f7800d6
:10365800000f7800648c80009e0f52000300350034
:10366800b48c8000548c88002a003700648c800059
:103678001e021200f1ff27000400780096fd0700e3
:1036880000027800948c8800948c80004ba2de00a5
:10369800848c8800958c8000f47f2000048262006e
:1036a8004422dd00a48c8800848c800067024200dc
:1036b8008402420084182100048242001404780025
:1036c800a58c8000848c80006702420004034200bd
:1036d800841821000402430014037800848c8000bd
:1036e8000402e800670242008403420084182100b3
:1036f8000482430014027800040253008500780015
:10370800040078006bfd07000002780004025400f2
:10371800548c8800548c8000040078004f04780092
:103728000080fa00000006000000fa00444424006b
:10373800648c88000002eb00b48c880034172a00df
:10374800c48c8800a4ae2700d48c8800243a2600b4
:10375800e48c880074ca2200f48c8800644120003c
:10376800048d880054172e00148d880034792d009c
:10377800248d8800e46f2c00348d8800849e2b00f3
:10378800448d880074822a00548d8800b42e2a0043
:10379800648d880094f42900748d880074ba290017
:1037a800848d880054802900948d8800e445290080
:1037b800a48d88000080fa00000006000200fa00cc
:1037c800881f7800891f78004400f8000800280046
:1037d8000800e10002003a0000002c002900370030
:1037e8000808e10002003a00f0ff27002500370032
:1037f8008e0478008003eb000100e0000a003b0023
:10380800810c78000000e00004003400800078009b
:103818001900ea0007002c00030037008000ea00c6
:1038280019007800f7ff23008080ca008100ca00d1
:10383800481c2100f5ff2700090008000f000000c0
:103848001900cd000680cd000600e0000600330018
:103858001201c4001903780012c1c40038027800ac
:1038680087031a00050037001241c40019037800c5
:103878001281c40038027800870342008502d10013
:103888000700ea004400f900cf0478004f047800ec
:103898000080fa000000060020028000809fbe0021
:1038a800070b210000082000b70078000101b800cc
:1038b80083814100052021000200e00008003a0051
:1038c80005824100941b78000344b0000582410042
:1038d800940b78004f00be0020028800000006000c
:1038e800058241001403780083c1e8000582410085
:1038f800140013000090b800869b4000e343b0001a
:1039080005824100058241001403780083c1e80064
:1039180005824100140013000090b800868b400017
:103928004f00be0020028800000006001108980021
:1039380000000600f0039000800a90000582530002
:103948005080ca00c002780045018800a00290009b
:103958001301c0007c00c8000000cb000600cc00aa
:10396800d00090000130e10004003c00e00090002d
:103978000130e10001003400860078001108980049
:10398800b00290001301c00001035300c002900070
:103998001241c4000000cb005000cc00150180008b
:1039a8000520780000000600749e2400b68580007b
:1039b8001301c100c78580001201c2001201c200b4
:1039c800b6858000d68588000700cc00e78588008a
:1039d80094858000a58580001301c2001201c400ef
:1039e800e30b21003300cc001301c5001241c100d4
:1039f8001300cc0000000600201880006610b500f7
:103a080080027800248380001301c0000400cc00e9
:103a1800b4858800301880006a10b50080027800ec
:103a2800448380001301c0000400cc00c4858800d2
:103a380000000600308388005183880000000600db
:103a48003486800045868000c582880096ed260071
:103a58008502ea008500ca001201c1000000cc00fe
:103a6800d08288008500ca001241c1000000cc0045
:103a7800e082880000000600168680002786800005
:103a880094858000a58580001301c4001241c200fe
:103a9800630c21003300cc001301c1001201c500e2
:103aa8001300cc00000006000002900005188000fa
:103ab8001301c0000400cc001400980000000600a8
:103ac800041880008482d10004002400048242008b
:103ad800248a880000000600588a8000698a8000cd
:103ae800110009000940d900f0868800000006008e
:020000040000fa
:020000040005f5
:045fe000deff0000e0
:020000040000fa
:020000040005f5
:045fe400ffff0000bb
:020000040000fa
:020000040005f5
:045fe8007fff000037
:020000040000fa
:020000040005f5
:045fec007dff000035
:020000040000fa
:020000040005f5
:045ff00038ff000076
:020000040000fa
:020000040005f5
:045ff400cfff0000db
:00000001FF
